:020000040000FA
:10000000100F0020F100000011010000D5000000D9
:1000100000000000000000000000000000000000E0
:1000200000000000000000000000000015010000BA
:10003000000000000000000017010000190100008E
:100040001B0100001B0100001B0100001B01000040
:100050001B0100001B0100001B0100001B01000030
:10006000814700001B0100001B0100001B01000074
:100070001B010000154800001B0100001B010000CF
:100080001B0100001B0100001B0100001B01000000
:100090001B0100001B0100001B010000D14C0000EF
:1000A0001B0100001B010000753900001B0100004E
:1000B0001B010000A10200001B0100001B01000049
:1000C0000348854600F0CAF80048004795610000E3
:1000D000100F002004207146084202D0EFF309807F
:1000E00001E0EFF308807146004A1047ED1A000066
:1000F0000A480B4901600B4901600B4901600B4A3A
:100100000B491160002101600A4880470A480047F6
:10011000FEE7FEE7FEE7FEE7FEE7FEE70001005030
:100120005900000016000000880000002400005064
:10013000A55A0000FD430000C100000030B50B4689
:10014000014600202022012409E00D46D5409D42B1
:1001500005D31D469540491B254695404019154637
:10016000521E002DF1DC30BD70B50024254600285C
:1001700001DA01244042002901DA01254942FFF752
:10018000DDFFAC4200D04042002C00D0494270BD9F
:1001900003460B439B0703D009E008C9121F08C0A0
:1001A000042AFAD203E00B780370401C491C521E4B
:1001B000F9D27047D2B201E00270401C491EFBD256
:1001C00070470022F6E710B513460A460446194662
:1001D000FFF7F0FF204610BDF0B51FB40646002023
:1001E00082B005464024019100901BE0019922460F
:1001F0000F46304600F020F8049A059B801A99417A
:1002000010D310461946224600F03AF8361A8F41AC
:100210000197224601200021009F00F031F8381894
:100220004D4100902046641E0028DFDC019B0098B1
:100230002946324607B0F0BD10B5202A04DB084637
:10024000203AD040002110BD0B46D340D04020249E
:10025000A21A91400843194610BD0000064C012522
:10026000064E05E0E36807CC2B430C3C984710345E
:10027000B442F7D3FFF728FF70AB000090AB00004B
:1002800010B5202A04DB0146203A9140002010BD21
:10029000914020239C1A0346E3401943904010BD2F
:1002A000134800688105890D124800784200114802
:1002B000801C81520E4840688005800D0D49C88120
:1002C0000B4800698005800D088209484069800557
:1002D000800D488208460078062803DA0846007830
:1002E000401C0870012003494870014908637047A9
:1002F00000000E409A01002070B502460B46002413
:100300001AE0002112E04800165A481C4000105A1A
:10031000864209DD4800155A481C4000105A4E001C
:100320009053481C40001552481CC1B2581E001B77
:100330008842E8DC601CC4B2581EA042E1DC5810C0
:100340004000105A70BD0000002010E00C49096AFE
:100350000122D20211430A4A116200BF0849096B07
:1003600008221140C9080029F8D1411CC8B232281E
:10037000ECDB0121034A517000211170704700002D
:1003800000000E409A0100200A789200094B9A5A08
:10039000824203DB0A78521E0A700AE002E00A7801
:1003A000521C0A700A789200024BD218528882427C
:1003B000F5DD7047CC620000810F8900064A89187C
:1003C0004968C306DB0E01229A401143820F920056
:1003D000014BD2185160704700020050F3B589B04C
:1003E0000C460120000453490862099800280ED1E8
:1003F00008460068012108434E490860012000F0CA
:100400009FFA002006904C48089002250EE04948CB
:1004100000680421084347490860102000F090FA62
:100420000120C004069045480890042544488442B1
:1004300004D84010844201D9002712E04148844288
:1004400005D84010844202D90127640009E03E48E3
:10045000844205D84010844202D30327A40000E060
:1004600057E00020C043039000200190029034E048
:1004700029460898FFF762FE05903449059888429E
:100480002AD933490598884226D2022007901EE0D7
:10049000059E07994E432B48864215D3400086425D
:1004A00012D8A64201D9301B00E0A01B049003998A
:1004B0000498884208D20498039001950798029006
:1004C0000398002800D106E00798401C07902149B6
:1004D00007988842DCD900BF6D1C212DC8D9B8030C
:1004E000069908430199891E490208430299891E09
:1004F000084310490862042000F022FA781C019A8F
:10050000504301460898FFF719FE029948430BB083
:10051000F0BD0998002803D10F480649086202E09F
:100520000E4804490862042000F00AFA00F068F856
:10053000EDE7000000020050001BB70000805101F1
:1005400000C2EB0B00E1F50580F0FA02006A18002A
:100550000024F400010200002EC200006FD600004B
:10056000024909680143014A1160704700020050C6
:1005700010B503F0E1FD0148006810BD0000002047
:10058000FEB5002002901AA0006800901948046A85
:1005900000132040002801D00020FEBD0120C0042F
:1005A0002040002801D0144D00E0144D01204004EB
:1005B0002040002801D02846EFE703208003204098
:1005C000800B69460A5C0192E005C00D861C1F2065
:1005D00040022040400A871C019A7A431146AA082B
:1005E00072431046FFF7AAFD800002900298D4E7FC
:1005F000010202040002005000805101001BB700FC
:10060000FEB5002002901AA0006800901948046A04
:1006100000132040002801D00020FEBD0120C004AE
:100620002040002801D0144D00E0144D012040046A
:100630002040002801D02846EFE703208003204017
:10064000800B69460A5C0192E005C00D861C1F20E4
:1006500040022040400A871C019A7A431146AA08AA
:1006600072431046FFF76AFD800002900298D4E7BB
:10067000010202040002005000805101001BB7007B
:10068000FEB5002002901AA0006800901948046A84
:1006900000132040002801D00020FEBD0120C0042E
:1006A0002040002801D0144D00E0144D01204004EA
:1006B0002040002801D02846EFE703208003204097
:1006C000800B69460A5C0192E005C00D861C1F2064
:1006D00040022040400A871C019A7A431146AA082A
:1006E00072431046FFF72AFD800002900298D4E77B
:1006F000010202040002005000805101001BB700FB
:10070000FEB5002002901AA0006800901948046A03
:1007100000132040002801D00020FEBD0120C004AD
:100720002040002801D0144D00E0144D0120400469
:100730002040002801D02846EFE703208003204016
:10074000800B69460A5C0192E005C00D861C1F20E3
:1007500040022040400A871C019A7A431146AA08A9
:1007600072431046FFF7EAFC800002900298D4E73B
:10077000010202040002005000805101001BB7007A
:1007800070B504462248C06810210840054621483B
:10079000844200D904462048844200D204461C48C2
:1007A0000068042108431A490860102000F0C8F8C6
:1007B0001748006907210843154908610846806900
:1007C0000009000188610846C068C007C00F002802
:1007D00005D061000020FFF701FE04460AE0610039
:1007E0000120C004FFF7FAFD04460948C068102143
:1007F000084005460121022000F010F8002D05D127
:10080000034800680421884301490860600870BDFE
:100810000002005000A24A0440787D0170B50446F1
:100820000D461548C0681021084006461248006869
:10083000084311490860102000F082F80E48006952
:10084000C008C000C01D0C49086108468069000945
:1008500000012843886108460069C008C0002043A1
:10086000086103F069FC002E05D1034800681021DF
:1008700088430149086070BD00020050FEB50023A6
:100880000024264D6F682E68AD680197009602958A
:1008900005016D0F002D2CD08500AD0FAD006E460B
:1008A00075591F4EAB1905016E0FC501ED0EAE4017
:1008B0001D68B5430D431D601A4DA8420BD1184D5C
:1008C000103DED69FF260136B5430E403543144E09
:1008D000103EF5610DE0144DA8420AD1104D103DB7
:1008E000ED6901267602B5430E4035430C4E103EAD
:1008F000F56185032D0E002D0ED00503AD0FAD0063
:10090000074E0836AC1985032E0E8505ED0EAE4058
:100910002568B54315432560FEBD000034AB0000DB
:10092000100200501400C0571500E0570349096930
:10093000382291430143014A11617047000200507F
:100940000146074A05E01046521E002801DC00203F
:1009500070470448C06808408842F4D10120F7E796
:1009600080F520000002005008B51C4800780028DF
:1009700032D01A480078401EC1B218480170007881
:10098000002829D116480078002825D1154840783C
:10099000002821D0012000F0F7FD022300221021C1
:1009A000802002F041FD0D482038807B002805D0D2
:1009B000042200210CA002F061FE07E004200023C5
:1009C0001022802100900D4802F014FE0623002220
:1009D0001021802002F028FD08BD000068010020E1
:1009E000AE010020980000202020204D49432049DE
:1009F00053204F464620202000000000C2900000F7
:100A00000021084628E042021F231B03D11822229E
:100A1000134BDA601A46516001221A6100BF00BF11
:100A200000BF00BFBFF36F8F00BF00BF00BF00BF9C
:100A30000B4A1269002AFBD1094A126840231A4066
:100A4000002A05D0064A12681A43054B1A6000E0D6
:100A500000BF411CC9B208460728D4DD704700001A
:100A600000C00050F8B505460026324F5DE0F01991
:100A7000C10F0918C9030C0CA1001F22120388180A
:100A800000F0A2FE401C002825D1B44207D1FFF798
:100A9000B7FF0020284908802849088047E0611EE8
:100AA00089001F221203881800F08EFE401C0028C7
:100AB0000FD0AC4207DAFFF7A3FF00201E490880E1
:100AC0001E49088004E0601B1C4908801A48048005
:100AD0002DE0274629E0BC4208D1601C401B174985
:100AE0000880012080021449088020E0611C8900F0
:100AF0001F221203881800F067FE401C002812D144
:100B0000601CA84207DAFFF77BFF00200A49088033
:100B10000A49088006E0601C401B08490880601CE8
:100B20000549088003E0601C86B2BE429FDD00BF1D
:100B3000F8BD0000FF030000540000205600002014
:100B400070B505460C4603F07DF918480068012190
:100B50000843164908602046FFF784FF21462846CF
:100B600000F02AF8002000F049FE0646104903F084
:100B700039FE012000F042FE06460D49091D03F032
:100B800031FE022000F03AFE06460949083103F022
:100B900029FE06480068400840000449086000BF7C
:100BA00000200449086000BF70BD000000C0005074
:100BB000390100200001005070B505460E460024A2
:100BC0000CE008490988091989001F2212038818B6
:100BD00000F0FAFDA1006850601C84B2B442F0DB62
:100BE00070BD00005600002070B506460D4603F0AB
:100BF00029F9284800680121084326490860264849
:100C000000884019401E2549884206DDFFF7F8FE9E
:100C100000202349088020490880002422E01E4A41
:100C20001288A21892001F231B03D118A200B058EB
:100C30002122184BDA601A465160906001221A6135
:100C400000BF00BF00BF00BFBFF36F8F00BF00BF7A
:100C500000BF00BF0F4A1269002AFBD100BF601C11
:100C600080B20446AC42DADB0B4800880C490880AD
:100C7000094800884019084908800648006840086B
:100C800040000449086000BF00200649086000BF1A
:100C900070BD000000C0005054000020FF030000A1
:100CA000560000200001005000B589B000F0AEFCF5
:100CB0000E48807B002805D0022200210CA002F003
:100CC000DDFC07E0022000231022802100900D4867
:100CD00002F090FC0C4A0DA101A804F061FF04226F
:100CE000002101A802F0CAFC09B000BD48010020A3
:100CF00020436F6E6E656374696E672041502120DA
:100D0000000000004299000075010020535349443F
:100D10003A25730000B589B000F078FC0E48807B5E
:100D2000002805D0022200210CA002F0A7FC07E059
:100D3000022000231022802100900D4802F05AFC6E
:100D40000C4A0DA101A804F02BFF0422002101A8E8
:100D500002F094FC09B000BD48010020436F6E6EA4
:100D6000656374696E6720484F535421000000008A
:100D7000429A000075010020535349443A257300FC
:100D800038B54448007801287ED14348C06B4249B9
:100D9000886342484078002872D008462030407C62
:100DA000012822D1002000F0EFFB022300221021B5
:100DB000802002F039FB38482030807B002805D0A5
:100DC0000422002136A002F059FC07E00420002391
:100DD000102280210090374802F00CFC06230022EC
:100DE0001021802002F020FB21E0002000F0CCFB4D
:100DF000022300221021802002F016FB264820301A
:100E0000807B002805D0042200212BA002F036FCB4
:100E100007E0042000231022802100902B4802F0DC
:100E2000E9FB062300221021802002F0FDFA1A4976
:100E3000886BE1210901FFF781F904460423402270
:100E4000022102F09BFB1449886BE1210901FFF7A5
:100E500075F90D463C212846FFF770F90446042336
:100E60005822022102F08AFB0B49886B3C21FFF7D4
:100E700065F90C46042370220221204602F07EFB15
:100E800000201349087000E002E01248124908806F
:100E900038BD0000AE01002028010020980000208D
:100EA00053706B2054696D6520203A20203A202031
:100EB00000000000C293000052656D2054696D650A
:100EC00020203A20203A202000000000C294000098
:100ED00064000020102700006200002008B52248AE
:100EE0004088002805D020484088401E1E49488080
:100EF00038E01D480078002806D0012806D00228D6
:100F000003D003282CD128E000BF2AE0002000F005
:100F10003BFB022300221021802002F085FA1348B7
:100F2000807B00280AD00422002111A002F0A6FB39
:100F30000622002113A002F0A1FB0DE004200023F3
:100F4000102280210090144802F054FB0623002256
:100F50001021802002F068FA03E000F057F800E06A
:100F600000BF00BF08BD000098000020480100201D
:100F700020202020576972656C6573732020202023
:100F800000000000202020436F6E666572656E636E
:100F9000652020200000000032A6000008B50020D7
:100FA0001149C870114948700F49087100F0ECFAF6
:100FB000022300223021802002F036FA0C48807B88
:100FC000002805D0042200210AA002F057FB07E008
:100FD000042000231022802100900B4802F00AFB1D
:100FE000062001F0AFFF08BDAE01002098000020F0
:100FF000480100202020204944205265706561741A
:10100000212020200000000042A1000038B501206E
:101010007F49C8707F4948707D4908717E48407C8F
:10102000022878D008460078012874D17A48407C9C
:10103000012821D1002000F0A7FA0223002210216C
:10104000802002F0F1F97448807B002805D004224A
:10105000002172A002F012FB07E0042000231022FE
:1010600080210090724802F0C5FA06230022102168
:10107000802002F0D9F920E0002000F085FA022358
:1010800000221021802002F0CFF96348807B0028E5
:1010900005D00422002167A002F0F0FA07E0042046
:1010A0000023102280210090674802F0A3FA062353
:1010B00000221021802002F0B7F957492039886BAF
:1010C000E1210901FFF73AF80446042340220221F6
:1010D00002F054FA50492039886BE1210901FFF7E9
:1010E0002DF80D463C212846FFF728F80446042336
:1010F0005822022102F042FA47492039886B3C21EC
:10110000FFF71CF80C46042370220221204602F04F
:1011100035FA78E0FFE73E480078002806D001283D
:1011200005D002282AD003286CD149E000BF002056
:1011300000F02AFA022300221021802002F074F924
:101140003548807B00280AD0042200213FA002F00D
:1011500095FA0622002142A002F090FA0DE0042048
:101160000023102280210090424802F043FA062317
:1011700000221021802002F057F943E0002000F007
:1011800003FA022300221021802002F04DF92248A8
:10119000807B002805D00422002137A002F06EFADF
:1011A00007E004200023102280210090374802F03D
:1011B00021FA062300221021802002F035F921E0D7
:1011C000002000F0E1F9022300221021802002F02B
:1011D0002BF91148807B002805D0042200212CA087
:1011E00002F04CFA07E00420002310228021009036
:1011F0002C4802F0FFF9062300221021802002F083
:1012000013F900BF00BF0249087801F09BFE38BD0A
:10121000AE010020980000204801002053706B2090
:1012200054696D6520203A20203A202000000000FB
:10123000C293000052656D2054696D6520203A20EC
:10124000203A202000000000C2940000202020202E
:10125000576972656C6573732020202000000000C0
:10126000202020436F6E666572656E6365202020C6
:101270000000000032A60000204D494320495320C1
:1012800057414954494E472000000000C2920000D7
:101290004D4943204953204150504C59494E472015
:1012A00000000000C291000008B500202849C87065
:1012B000284948702649087100F066F90223002287
:1012C0001021802002F0B0F82348807B002805D050
:1012D0000422002121A002F0D1F907E0042000231C
:1012E000102268210090214802F084F91A48807B7E
:1012F000002805D0062200211DA002F0BFF907E05A
:10130000062000231022682100901D4802F072F987
:101310001C49C98803221203881A04236822032166
:1013200002F02CF91749898803221203881A062330
:101330006822032102F022F912488078002803D0A5
:10134000042001F0FFFD02E0062001F0FBFD08BDD6
:10135000AE01002098000020480100204C6F63611E
:101360006C20202049443A205700000042A400008D
:1013700043757272656E742049443A20570000002C
:1013800012A500002C00002008B500204349487039
:1013900043488079042803D142480078002801D0CE
:1013A000012000E000203E4908713F4840780028B5
:1013B00049D00020C87000F0E7F802230022102175
:1013C000802002F031F837482030807B002805D09B
:1013D0000422002135A002F051F907E00420002387
:1013E000102260210090354802F004F92D48203089
:1013F000807B002805D00622002131A002F03EF9B2
:1014000007E006200023102260210090304802F0FF
:10141000F1F82549488804236022194602F0AEF805
:101420002149888806236022042102F0A7F81E487B
:101430000078002803D0042001F084FD2CE0062071
:1014400001F080FD28E001201549C870002000F05F
:101450009BF8022300221021802001F0E5FF1148B3
:101460002030807B002805D00422002119A002F042
:1014700005F907E0042000231022802100901A487B
:1014800002F0B8F8062300221021802001F0CCFFE2
:101490000349087801F056FD08BD000098000020BF
:1014A000AE0100202801002034000020546F746138
:1014B0006C20207369676E3A00000000C29500003E
:1014C00048617665207369676E65643A00000000C4
:1014D000829600005369676E696E206265206261C2
:1014E0006E6E6564000000004297000008B50120A0
:1014F0001C49C87000201C4948701A48807904288B
:1015000003D11A480078002801D0012000E0002013
:1015100014490871002000F037F80223002210213E
:10152000802001F081FF11482030807B002805D009
:10153000042200210EA002F0A1F807E004200023FD
:101540001022802100900F4802F054F80623002258
:101550001021802001F068FF0249087801F0F2FCB8
:1015600008BD0000AE0100209800002028010020E6
:1015700020202020566F74696E672E2E2E2020208A
:101580000000000042980000002806D0012809D081
:10159000022803D003280AD105E000BF0021064A33
:1015A000518004E000BF0F21034A518000BF00BFFB
:1015B00001490870704700009800002008B51048E5
:1015C0000088401C80B20E4908800A2817DB0020E2
:1015D0000C490090097889020B4A881800234022A0
:1015E000802102F007F8092106480078401CFEF728
:1015F000BBFDC8B20349087000200149088008BD3E
:101600009E0000209C000020466A00000EB501F0FC
:10161000F3FE0020FFF7B8FF21480079002807D02B
:101620000020612310220A2100901E4801F0E2FFF1
:1016300000201B4900908978242251431A4A8818B7
:101640006E231022122101F0D5FF184800780128DE
:1016500008DD00200346102212210090144801F0FA
:10166000C9FF0DE000201149009009782422514360
:101670000F4A903A881800231022122101F0BAFF75
:101680000C48C08803210903421A0BA101A804F0E9
:1016900087FA0022302101A801F0F0FF0EBD000002
:1016A00028010020AE8F0000468E00006C01002053
:1016B0008A8F00002C000020572530336400000082
:1016C00000B589B00220FFF75FFF0223002230211E
:1016D000802001F0A9FE124A12A101A804F060FACC
:1016E0000222002101A801F0C9FF1048807B0028D8
:1016F00005D0062200210EA001F0C0FF07E0062061
:1017000000231022282100900B4801F073FF0622CD
:10171000282106481B3801F0B1FF09B000BD0000C8
:1017200075010020535349443A25730048010020B5
:10173000564552203A000000E2A5000008B5FFF728
:1017400065FF0948807B002805D00422002107A0FE
:1017500001F094FF07E00420002310228021009074
:10176000074801F047FF08BD48010020436F72653C
:101770002055415254204572726F722100000000C2
:10178000429B000010B50C48006B0C4944180C49F2
:10179000097889010B4A88184022214603F04CFB46
:1017A00040200549486306480078401C4107490F1E
:1017B0000348017010BD000000050640000106400E
:1017C000CA030020CA010020014600200A4AD06056
:1017D000104641600120106100BF00BF00BFBFF391
:1017E0006F8F00BF00BF00BF00BF03480069002823
:1017F000FBD101488068704700C0005001460420BA
:101800000A4AD060880050600120106100BF00BF0C
:1018100000BFBFF36F8F00BF00BF00BF00BF034812
:1018200000690028FBD101488068704700C0005063
:101830006048006803210904884301210904401815
:101840005C49086000205C4908625A48006803212E
:1018500009078843574908600846006803210903BF
:101860008843401853490860012053498861514812
:10187000006803218903884340184E49086001200D
:101880004D49C8614B4840300068C02188434949F0
:1018900040310860084600683021884310304549CF
:1018A000403108600120444940318860414840305F
:1018B00000680C218843001D3E494031086001202A
:1018C0003D49403148603B48403000688008800016
:1018D000401C3849403108600120374940310860D8
:1018E000344800680321090588430121090540188F
:1018F000304908602F48403000680321890688433A
:101900000121890640182B494031086008460068CB
:101910000321090688430121090640182549403161
:10192000086024484038006803218906884321491B
:1019300040390860084600680321090788434018B9
:101940001C49403908601B488030006830218843BA
:1019500018498031086008460068C021884315494D
:1019600080310860154840680C218843134948605D
:10197000084640684860084640690F2109068843C8
:101980000E4948610846406948610D4800683021A9
:10199000884330300A49086001200A4988600848B5
:1019A0000068C0218843C03005490860012005490E
:1019B000C860704740400050404200504000005016
:1019C00040410050404300501CB5684603F076F992
:1019D000684600788021084000280FD0684640788B
:1019E000012804D0022803D0032802D000BF00BF82
:1019F00000BF002003F0F2FA00BF24E06846407800
:101A0000092804D00A280FD00B2816D116E0684602
:101A1000C078032807D10C488069802108430A490F
:101A20008861002048610DE00748806880210843F4
:101A3000054988600020486004E000BF002003F0F2
:101A4000CDFA00BF00BF1CBD0005064010B500BFA9
:101A500006E059201E4908601620086088200860AA
:101A60001B4800680128F4D100BF1A48FEF7A4FC07
:101A7000202200211748FEF701FF002216491748CF
:101A800003F0F0F90020164988610920800115490A
:101A900088600820086011204001886108200861E2
:101AA0004120886210200862222088635020086349
:101AB0004020486303F050FC1720012181400A4A6E
:101AC000116000BF00BF00200149086000BF10BDC9
:101AD000000100509B3C0040C919000090630000C9
:101AE000000006400005064000E100E0044604A0B6
:101AF00004F046F8204604F095FB00BFFEE7000026
:101B0000496E2048617264204661756C742048619A
:101B10006E646C65720A000038B504460D461948BB
:101B20000078012804D0022815D0032820D111E024
:101B3000002014490870002C06D0034602460146D6
:101B40000090062000F03EF801220E49562003F0D6
:101B50005FFD0EE000BF00200A490870002C06D08F
:101B60000346024601460090082000F02BF800E0F2
:101B700000BF00BF002D03D00249087801F0E2F950
:101B800038BD0000AE01002070B504460D460C487B
:101B9000007801280CD0012009490870084684709B
:101BA00003F006FD01220649891C562003F030FD92
:101BB000002D03D00249087801F0C4F970BD00007F
:101BC000AE010020FEB505460E4617461C465A21BA
:101BD00068460171A52141710898001DC1B268468F
:101BE0008171AA21C171057246728772FC21009130
:101BF000072101A803F0C8FE002C06D0012004F044
:101C000040FA2046089903F0BFFE0121684603F020
:101C1000BBFEFEBD38B504460C4800786946087026
:101C2000002C01D1012100E00021684641700748E5
:101C3000817868468170064801786846C170042240
:101C40006946AB2003F0E4FC38BD00002801002009
:101C50006C01002010B500200A4948700021094895
:101C6000203041730621017400200749487007495C
:101C7000887007490871C870064948700121FFF74C
:101C80004BFF10BD280100203A0000206C0100200D
:101C9000AE01002098000020F0B58DB007463878DE
:101CA0000C907D78BE78FC1C00200B900A900C985C
:101CB000002804D002280AD02E287AD16AE0002D0C
:101CC00002D1FFF7C7FF01E002F09AFB80E0002D90
:101CD0005FD10120FD4948700321FC482030C173C9
:101CE000FFF794FC2078002806D0012810D00228A5
:101CF00028D003284BD13AE00021F4482030017469
:101D00006078F3498871A078C871FFF77FF93FE0E8
:101D10000121EE482030017460780002A178084368
:101D2000EC494880E078000221790843E94988803D
:101D300060790870A079E6498871E079C871FFF789
:101D400023FB25E00221E148203001746078E2495C
:101D50008870A078DE498871E078C8712079DE4902
:101D600048706079DB490870FFF7C0FB10E0032181
:101D7000D6482030017460780002A1780843D74922
:101D80008880002088704870FFF78EFA00E000BF5E
:101D900000BF1DE0CD482030007C042816D0CB4881
:101DA0004078002806D10120C8494870FFF72EFC72
:101DB00004E00CE000210846FFF7AEFE0421C34812
:101DC000203001740321C173FFF7E8F800E000BF81
:101DD00000BFBE484078002876D00C98232874D0E5
:101DE00020DC102872D00EDC0A2841D006DC032843
:101DF0006DD005283DD007286AD116E10E2868D09D
:101E00000F28F9D1FEE3192877D006DC132875D006
:101E1000142874D01528EFD1AEE21D2870D01E28EA
:101E2000EAD1F0E331286CD013DC24380C284FD2EF
:101E300043007B449B885B009F444D054A00790525
:101E40004A0097014A004A00CF0420034A004A0092
:101E5000E8013D286FD006DC32286DD034286CD0E4
:101E60003C28C9D1F5E33F2868D04028C4D1F1E32C
:101E700000BF002D06D0012D44D0032D73D0042DBA
:101E80003AD140E0924AD1782078FFF77DFE8F4822
:101E90002030407C022802D0FEF772FF2CE09048F0
:101EA0004078002828D00120FFF76EFB0223002293
:101EB0001021802001F0B8FA84482030807B00286F
:101EC0000CD00422002105E0FEE3FEE3B2E377E359
:101ED000FCE381E283A001F0D1FB07E004200023B2
:101EE000102280210090844801F084FB0623002208
:101EF0001021802001F098FA95E0E8E389E12BE2D7
:101F0000E6E345E200BF76484078002829D001206A
:101F1000FFF73AFB022300221021802001F084FA0F
:101F20006A482030807B002809D00422002173A059
:101F300001F0A4FB0BE0F3E34BE3C9E2F1E304207F
:101F40000023102280210090714801F053FB0623EA
:101F500000221021802001F067FA03215B48403005
:101F6000017060E0FFE75A48807904282DD10320F2
:101F7000574908705A484078002821D00020FFF7C0
:101F800003FB022300221021802001F04DFA4F486C
:101F90002030807B002805D0042200215DA001F0C4
:101FA0006DFB07E0042000231022802100905E4892
:101FB00001F020FB062300221021802001F034FADA
:101FC0004349087800F0BEFF2CE002204049087029
:101FD00043484078002821D00020FFF7D5FA02239B
:101FE00000221021802001F01FFA38482030807B29
:101FF000002805D0042200214CA001F03FFB07E09F
:10200000042000231022802100904D4801F0F2FAB4
:10201000062300221021802001F006FA2C490878BE
:1020200000F090FF00BF00BF27E2002D33D1284A07
:10203000D1782078FFF7A8FD24482030407C022882
:1020400002D0FEF79DFE8FE025484078002821D081
:102050000120FFF799FA022300221021802001F0CD
:10206000E3F91A482030807B002805D004220021A3
:102070001CA001F003FB07E00420002310228021B4
:1020800000901D4801F0B6FA06230022102180209E
:1020900001F0CAF968E00E48C1780020FFF73CFD66
:1020A0000F48407800285FD00120FFF76DFA022327
:1020B00000221021802001F0B7F904482030807BF5
:1020C000002843D0042200213CE000002801002029
:1020D000AE010020340000203A0000202C00002037
:1020E000980000202020204D4943204953204F4E86
:1020F0002020202000000000C28F00002020204D62
:1021000049432049532046554C4C202000000000F4
:10211000429F00004D4943204953204150504C59A3
:10212000494E472000000000C2910000204D494365
:102130002049532057414954494E47200000000090
:10214000C2920000FBA001F099FA07E004200023EE
:10215000102280210090FC4801F04CFA0623002256
:102160001021802001F060F95EE7F848007C00282B
:102170001BD1F7484078002801D1012000E0002061
:102180004000F4494978002901D1012100E00021F3
:10219000C9000843F0490978002901D1012100E074
:1021A0000021090108430A901DE0EA480078E84947
:1021B0004978002901D1012100E0002149000843AC
:1021C000E4494978002901D1012100E00021C9003A
:1021D0000843E1490978002901D1012100E00021EB
:1021E000090108430A90D94820388178684601726D
:1021F000DA4801786846417202200090D648427859
:1022000002AB29200A99FFF7DDFC0DE7FFF722FD5D
:102210000AE7002D73D12078000261780843CD4988
:102220004880A0780002E1780843CA498880C748FE
:10223000007C01287BD00121C44801740020C549DD
:102240000870C3488079042804D1C0482038007839
:10225000002801D0012000E00020BD4908710020C5
:10226000BF494870BB484078002832D00020B849A8
:10227000C870FFF789F9022300221021802001F0A5
:10228000D3F8B248807B002805D004220021B5A0F5
:1022900001F0F4F907E004200023102260210090EF
:1022A000B44801F0A7F9A948807B002805D0062290
:1022B0000021B1A001F0E2F907E00620002310227E
:1022C00060210090B04801F095F9062000F03AFE38
:1022D00024E001209E49C8700020FFF755F9022331
:1022E00000221021802001F09FF89848807B002870
:1022F00006D004220021A5A001F0C0F908E02AE0E0
:1023000004200023102280210090A54801F072F9DA
:10231000062300221021802001F086F88C480079E5
:10232000002804D18A48C1780020FFF7F5FB8948CE
:10233000407800280FD0874840880423602219463F
:10234000019001F01BF98348808806236022042154
:10235000019001F013F9DAE3002D03D101207D494A
:10236000487002E000207B4948707848007C0128D2
:1023700001D1FFF709F8CAE30020034602460146EF
:1023800000901620FFF71EFC012072490870BEE382
:102390007048407800281ED06E48007800281AD176
:1023A0006C488088401C6B4988800846408804231C
:1023B00060221946019001F0E1F866488088062302
:1023C00060220421019001F0D9F8042000F0BAFD48
:1023D0000120604908709AE3002D31D15B48407BB1
:1023E00000284AD101215948417300205849C8703A
:1023F00008715B494870062000F0A4FD022300220A
:102400003021802001F010F80020FFF7BDF80223F2
:1024100000223021802001F007F84C48807B002802
:1024200005D0042200215FA001F028F925E0042056
:1024300000231022802100905F4801F0DBF81CE0AF
:10244000002142484173007C030003F0BDFB0608F5
:102450000B04110E051400BFFFF748F80CE0FEF75F
:10246000D5FD09E0FEF790FF06E0FEF797FD03E0DB
:10247000FEF71AFF00E000BF00BF48E32802304328
:102480000B903248007C03280ED003212F480174A2
:102490004A490B98888000204870887000210846BF
:1024A000FFF73AFBFEF700FF444881880B98814212
:1024B0000DD042490B988880084680880321090383
:1024C000401A062368220321019001F057F81EE309
:1024D000280230430B900120384988700B98C8803F
:1024E00008464078401C48700846C088011268467B
:1024F00001723248817968464172022202A957204E
:1025000003F086F82D48C08803210903401A0423EC
:1025100068220321019001F031F82848C088032186
:102520000903401A002338220321019001F026F804
:10253000EDE200002020204D4943204953204F4622
:102540004620202000000000C2900000480100202A
:10255000AE010020340000203A0000206C01002071
:1025600098000020546F74616C20207369676E3A84
:1025700000000000C295000048617665207369671D
:102580006E65643A00000000829600005369676E31
:10259000696E2062652062616E6E656400000000F5
:1025A00042970000202046697265205761726E696B
:1025B0006E6721200000000042A000002C000020D7
:1025C0000021FA480174FA488571C671FEF71EFDB4
:1025D0009DE2F7488571C671C1780020FFF79CFA2B
:1025E000F4484078002823D00120FEF7CDFF0223D5
:1025F00000221021802000F017FFEC48807B00288B
:1026000008D001E015E037E104220021EA4801F09A
:1026100035F807E004200023102280210090E748CD
:1026200000F0E8FF062300221021802000F0FCFECD
:102630006DE200BF002D20D10C980F280BD1012195
:10264000DA4841740020D9492039C863FEF798FB65
:102650009CE000E136E2D5482038007800280BD114
:102660000021D24841742078000261780843CF49A4
:102670002039C863FEF784FB88E00221CB4841740F
:10268000CC484078002870D0C9480078002806D08F
:10269000012805D0022830D0032876D151E000BFB0
:1026A0000020FEF771FF022300221021802000F09D
:1026B000BBFEBE48807B002810D004220021C0A0B1
:1026C00000F0DCFF062204E022E2FEE01EE25EE013
:1026D00079E00021BFA000F0D1FF0DE0042000232D
:1026E000102280210090C04800F084FF06230022C1
:1026F0001021802000F098FE47E00020FEF744FF04
:10270000022300221021802000F08EFEA748807B4B
:10271000002807D004220021B44800F0AFFF09E0F0
:102720009EE09CE104200023102280210090B0480C
:1027300000F060FF062300221021802000F074FECC
:1027400023E00020FEF720FF02230022102180203A
:1027500000F06AFE9548807B002807D00422002103
:10276000A248183800F08AFF08E00FE00420002398
:102770001022802100909F4800F03CFF0623002299
:102780001021802000F050FE00BF00BFBFE1002DEF
:1027900008D10221854801740020974948700846F5
:1027A000867004E0012D02D1052180480174FEF7F6
:1027B0009DFE7F480079002804D17D48C178002023
:1027C000FFF7AAF9A3E1002D03D101208A4908707F
:1027D00002E000208849087099E176484078002896
:1027E00038D0012D1BD10320FEF7CEFE022300229C
:1027F0001021802000F018FE6C48807B002805D056
:10280000042200217DA000F039FF23E004200023F2
:10281000202280210090824800F0ECFE1AE0032084
:10282000FEF7B2FE022300221021802000F0FCFD02
:102830005E48807B002805D00422002179A000F0AA
:102840001DFF07E0042000232022802100907E4805
:1028500000F0D0FE5BE1680082305549088156E106
:10286000524820380078002805D164206843504938
:10287000488102F09DFE4AE1002D01D0012D23D1B7
:10288000002D03D101214948817302E0002147480E
:1028900081734648007C030003F096F906080B0498
:1028A000110E051400BFFEF721FE0CE0FEF7AEFB93
:1028B00009E0FEF769FD06E0FEF770FB03E0FEF7B6
:1028C000F3FC00E000BF00BF21E139480574284651
:1028D00003F0FCF81BE1002D06D0012D0BD0022DDA
:1028E00013D0032D20D115E0314886730146887B33
:1028F00001F0D8FA19E0002000902D48827B0023D7
:1029000019462520FFF75EF90FE02948807B28490A
:10291000C8730AE00420264988730846807BC87380
:10292000887B01F0BFFA00E000BF00BFEFE0002DA0
:1029300004D0012D11D0022D37D187E03011401E77
:10294000C0B20A9022781A4811300A9942540A9A61
:10295000815C104603F0AAF87FE0102168460172FE
:102960001348417C68464172202181721048817C65
:102970006846C172302101730D48C17C68464173BD
:10298000402181730A48017D6846C173502101745A
:102990000748417D684641740A2002AB0022114677
:1029A00000902720FFF70EF957E055E0480100207E
:1029B000AE0100209800002034250000C2900000E5
:1029C00020202020576972656C65737320202020B9
:1029D00000000000202020436F6E666572656E6304
:1029E000652020200000000032A600002C210000FD
:1029F000C2920000C29100003A000020506C7A2080
:102A0000676F20746F2074686520646F6F72206F29
:102A10006620626F617264726F6F6D21000000004A
:102A200032A70000506C6561736520676F20746F7A
:102A30002074686520636F6E736F6C6521202020A1
:102A4000202020200000000032A90000052231498A
:102A5000481DFDF79DFB00E000BF00BF57E00420CC
:102A60002C49113988730846807BC873887B01F034
:102A700019FA2C2205212748FDF79CFB0522254940
:102A8000481DFDF785FB23481138417C002003F0E9
:102A90000DF820481138817C012003F007F81D480B
:102AA0001138C17C022003F001F81A481138017D69
:102AB000032002F0FBFF17481138417D042002F08B
:102AC000F5FF24E013491139098908468238C10FFE
:102AD0000918C905090E6A4611720F4800780028C6
:102AE00008D10C49113948896421FDF73DFB69463D
:102AF000487202E0002069464872022002AB0022C0
:102B0000114600904120FFF75DF800E000BF00BFD4
:102B10000DB0F0BDBF0100202801002070B50546B2
:102B20000E461446284600F04CF82978284600F056
:102B30001BF8284600F075F8700022121043C1B24D
:102B4000284600F011F8284600F06BF8E1B228465C
:102B500000F00AF8284600F064F8284600F049F82A
:102B6000032003F08EFA70BD70B504460D460120B7
:102B70002169884700206168884700261EE0802080
:102B80002840C011002803D00120A168884702E036
:102B90000020A16888476806050E022003F07CFA31
:102BA000012061688847022003F076FA00206168FE
:102BB0008847022003F070FA701CC6B2082EDEDBD4
:102BC00070BD10B504460120216988470120A16825
:102BD0008847012061688847042003F05DFA0020DF
:102BE000A1688847042003F057FA002061688847ED
:102BF00010BD10B504460120216988470020616896
:102C000088470020A1688847042003F045FA012086
:102C1000616888470120A1688847042003F03CFAD6
:102C200010BD70B5044600250020216988470120A9
:102C3000A1688847012003F02FFA012061688847C6
:102C4000012003F029FA08E0681CC5B2FA2D04DD62
:102C50002046FFF7CEFF012070BDE06880470028C6
:102C6000F2D1616888470020F6E7000008B503F05C
:102C700021FA65488078012802D002287BD1B1E092
:102C8000614880886149884208D15F4800780028FF
:102C900002D101F0B5FB00E000BFA2E05A488088F5
:102CA0001E28FAD158480078002876D0012802D092
:102CB000022871D172E05648007C01280CD003280C
:102CC0002BD1062000905348027980880112524B84
:102CD0002D20FEF777FF5EE05048007800281BD1DA
:102CE0004E484078002817D001204C49087008460B
:102CF0008088401C8880488804236022194600F0A0
:102D00003DFC4649888806236022042100F036FCF9
:102D1000042000F017F93EE000BF41480079002888
:102D200038D03F480078002809D100903848203832
:102D3000017800231A460420FEF744FF2AE03848B1
:102D4000C1780120FEF7E8FE36484078002821D0FF
:102D50000120FEF719FC022300221021802000F040
:102D600063FB2B48807B002806D0042200212EA084
:102D700000F084FC08E044E00420002310228021BD
:102D800000902E4800F036FC0623002210218020FF
:102D900000F04AFB00BF00BF22E013E01C482038CF
:102DA000007800280DD01E480079002809D00020A6
:102DB0002349886003460246014600900920FEF739
:102DC00001FF0DE017484078002808D0154800782A
:102DD000022802D0FEF774FC01E0FEF717F900BFED
:102DE00000BF0FE0084880881E2809D106484078B7
:102DF000022803D101201249886000E000BF00BF13
:102E000000E000BF00BF08BD76000020B80B000046
:102E1000480100202C0000206F0100203400002019
:102E2000AE010020980000202020204D4943204979
:102E300053204F464620202000000000C290000092
:102E4000404300503A48407B00281BD03848203887
:102E5000C08E002807D036482038C08E401E344926
:102E60002039C88663E03348C068C0433149C86030
:102E70003148C069C0433049C86119202C49203904
:102E8000C88654E02A48007C012823D12B480078CA
:102E900000284CD129484078002848D024482038C0
:102EA000C08E002807D022482038C08E401E2049FE
:102EB0002039C8863BE01F48C068C0431D49C86030
:102EC0001D48C069C0431C49C861192018492039F0
:102ED000C8862CE01648007C032828D11848407882
:102EE000002820D012482038C08E00280CD010486E
:102EF0002038C08E401E0E492039C88601200D4959
:102F0000C8600D49C86112E00D484078401E0C4968
:102F1000487000200749C8600749C8611420044967
:102F20002039C88603E0142001492039C88670473B
:102F3000480100204043005040420050340000202F
:102F40002C00002000B50021144AD186030002F0B5
:102F50003BFE07060F19180E0D05220000BF0121C8
:102F60000F4AD16191610F4AD16014E000BF00BFE8
:102F700000210B4AD161012191610021094AD160F0
:102F800009E000BF0121064AD161002191610121C0
:102F9000044AD16000BF00BF00BD0000280100202E
:102FA000404200504043005010B50246012002E06C
:102FB0000346534318460B464C1EE1B2002BF7D193
:102FC00010BD000038B57A480078032839D1794817
:102FD00000880F2805DA77480088401C754908806A
:102FE000E4E07348C1780120FEF796FD724840780E
:102FF0000028F5D00020FEF7C7FA02230022102196
:10300000802000F011FA6D48807B00280AD004224D
:1030100000216BA000F032FB062200216DA000F021
:103020002DFBC3E0042000231022802100906E4875
:1030300000F0E0FA062300221021802000F0F4F9CD
:10304000B4E000205B490880594800780128C7D1C6
:103050005A48407C00283ED0012802D00228FFD1E7
:10306000A3E056482038806B401C544920398863BF
:103070005148407800282DD04F480078002829D1A9
:10308000886BE1210901FDF759F804460423402229
:10309000022100F073FA49492039886BE1210901C6
:1030A000FDF74CF80D463C212846FDF747F804464D
:1030B00004235822022100F061FA40492039886B2C
:1030C0003C21FDF73BF80C460423702202212046E8
:1030D00000F054FA69E039482038806B012839D96A
:1030E00036482038806B401E344920398863324886
:1030F0004078002858D030480078002854D1886B98
:10310000E1210901FDF71AF80446042340220221B7
:1031100000F034FA29492039886BE1210901FDF7D3
:103120000DF80D463C212846FDF708F80446042317
:103130005822022100F022FA20492039886B3C21D4
:10314000FCF7FCFF0C46042370220221204600F00D
:1031500015FA29E01648C1780120FEF7DDFC164873
:103160004078002820D00120FEF70EFA022300222A
:103170001021802000F058F91048807B002805D0ED
:103180000422002119A000F079FA07E004200023AE
:103190001022802100901A4800F02CFA0623002209
:1031A0001021802000F040F900BF00BF38BD0000B2
:1031B000AE0100203E0000209800002048010020C1
:1031C00020202020576972656C65737320202020B1
:1031D00000000000202020436F6E666572656E63FC
:1031E000652020200000000032A600002020204D95
:1031F0004943204953204F4646202020000000002C
:10320000C2900000C206D20E01219140014A116015
:103210007047000000E100E010B5002819DA1A4AF2
:1032200003071B0F083B9B089B00D2588307DC0E4B
:10323000FF23A3409A438B071B0E8407E40EA34091
:103240001A43114B0407240F083CA408A4001A5188
:1032500018E00E4A03231B02D21883089B00D258A1
:103260008307DC0EFF23A3409A438B071B0E8407C2
:10327000E40EA3401A43054B032424021B198408BF
:10328000A4001A5110BD00001CED00E000E100E0B8
:1032900010B5002819DA1A4A03071B0F083B9B08D0
:1032A0009B00D2588307DC0EFF23A3409A438B0771
:1032B0001B0E8407E40EA3401A43114B0407240F8E
:1032C000083CA408A4001A5118E00E4A03231B026C
:1032D000D21883089B00D2588307DC0EFF23A3403B
:1032E0009A438B071B0E8407E40EA3401A43054B39
:1032F000032424021B198408A4001A5110BD0000E5
:103300001CED00E000E100E010B57F21002000F09E
:1033100058F80721002000F061F8002404E00020A4
:1033200000F028F8601C84B2012080028442F6DBA1
:1033300010BD000000BF0C4909680122D2051140F0
:10334000C90D0029F7D1094A516309490862096882
:1033500001221143064A116000BF05490968C907E7
:10336000C90F0029F9D170470080005080420050F9
:103370000040034000BF0D4909680122D2051140F9
:10338000C90D0029F7D10121094A51630949086291
:10339000096801221143074A116000BF0549096805
:1033A000C907C90F0029F9D17047000000800050FB
:1033B000804200500040034010B5AE20FFF7BAFF36
:1033C00010BD70B505460C462120FFF7B3FF284617
:1033D000FFF7B0FF2046FFF7ADFF70BD70B50546A3
:1033E0000C462220FFF7A6FF2846FFF7A3FF204642
:1033F000FFF7A0FF70BD000010B50948007A002853
:1034000005D1012189020748FCF7DBFE05E0FF2218
:10341000012189020348FCF7CDFE00F04DF910BDF3
:10342000000B002008070020FFB583B006460C46BD
:103430001D4600200290E410019023E0E901059868
:103440000F180020009014E01248007A002806D1DE
:1034500000223846791C8FB20F490A5405E0FF223A
:103460003846791C8FB20C490A540098401C80B22F
:1034700000900098B042E7DB681CC5B20198401C80
:1034800080B201900198A042D8DB00F015F907B096
:10349000F0BD0000000B00200807002010B5104808
:1034A000007800281AD00F4800680121C90508409B
:1034B000C00D002812D101200B494863084808308C
:1034C00008494860002000F0A9FB0848806B0121F2
:1034D00008430649886300200149087010BD0000B8
:1034E0000007002000800050804200500040034050
:1034F000F7B582B005461446284620380005060C6C
:10350000002001902DE0E10103980F1800200090A9
:103510001EE01748007A00280AD13046711C8EB28E
:1035200014490A5C3846791C8FB213490A540BE0DF
:103530003046711C8EB20F49085CC043C2B2384697
:10354000791C8FB20C490A540098401C80B200903C
:1035500000980828DDDB601CC4B20198401C80B2D2
:10356000019001980228CEDB00F0A6F805B0F0BD6E
:10357000000B00205664000008070020FFB583B050
:103580000C4615460020029000262FE0A01B401E8E
:10359000C1B20A20FFF708FD014600900398FCF72E
:1035A000CDFD0A210190FCF7C9FD0F4602980028C5
:1035B0000FD1601EB0420CDD002F08D1294630200B
:1035C000069AFFF795FF28460830C5B20CE00120A7
:1035D000029039463031C8B22946069AFFF788FF73
:1035E00028460830C5B200BF701CC6B2A642CDDB6B
:1035F00007B0F0BDFFB583B0044615460C9E002011
:103600000290ED1000272FE0F101069808180190B4
:103610000020009020E01748007A00280BD1029883
:10362000411C89B20291225C0198411C89B201912E
:1036300011490A540CE00298411C89B20291205CA5
:10364000C043C2B20198411C89B201910A490A548F
:103650000098401C80B20090049900988842DADB00
:10366000701CC6B2781C87B2AF42CDDB00F024F8E4
:1036700007B0F0BD000B002008070020F0B504469D
:103680000D461646002712E039467A1CD7B2605C18
:1036900032462946FFF72CFF28460830C5B27F2D59
:1036A00005DD0025B01CC6B2072E00DD02E0E05D9E
:1036B0000028E9D100BFF0BD00B50120064908701F
:1036C0000020064908800648007A002803D004201C
:1036D000088000F02DF800BD0007002068000020E1
:1036E000000B002010B500BF0D4800680121C9057E
:1036F0000840C00D0028F7D101200A4948630A4854
:1037000007494860002000F089FA0848806B0121D1
:10371000084306498863002003490839087010BD32
:103720000080005080420050080700200040034005
:10373000002014490988042905DA12490988491C1E
:10374000104A11801DE000210E4A1180002007E080
:103750000D49095CC943CAB20B490A54411C88B2DD
:10376000012189028842F3DB0849097A002901D145
:10377000012100E00021054A11720121024A083AA4
:10378000117070476800002008070020000B00201F
:1037900010B5AE20FFF7CEFD2020FFF7CBFD402077
:1037A000FFF7C8FD8120FFF7C5FDB020FFF7C2FD80
:1037B000A120FFF7BFFDA420FFF7BCFDA620FFF767
:1037C000B9FDA820FFF7B6FD3F20FFF7B3FDC820E5
:1037D000FFF7B0FDD320FFF7ADFD0020FFF7AAFDF6
:1037E000D520FFF7A7FD9020FFF7A4FDD920FFF714
:1037F000A1FD2220FFF79EFDDA20FFF79BFD12209E
:10380000FFF798FDDB20FFF795FD3020FFF792FDD5
:103810008D20FFF78FFD9520FFF78CFDFFF774FDDE
:10382000AF20FFF787FD10BD08B500BF06E05920A7
:103830004149086016200860882008603E480068FA
:103840000128F4D100BF002220213C48FDF716F8E2
:103850003A48FCF7B1FD05200007806B0B210902F7
:1038600088430521090788630846806B0B210902FC
:1038700008430521090788632F48C03840690121A2
:10388000C90588432C49C0394861084640694861E8
:103890002B4800F0BFFA2B4808232B4A0021009048
:1038A0002A4800F0D3F900220121284800F0C2F98B
:1038B00000BF00202049086000BF01202449886221
:1038C0000020234940310863642002F0DAFB012024
:1038D0001F4940310863642002F0D3FBFFF758FF13
:1038E0000120FCF769FD022000F094FA012000F0AD
:1038F00047F8012292025102002000F05DF880207A
:10390000124B2033002213490090104600F042F879
:1039100000231A460121184600F072F80221002007
:1039200000F01EF81A20012181400B4A116000BFEF
:1039300000200A49087208BD000100500D005052D5
:103940000D00000480969800040800000040034029
:10395000404200500807002000E100E0000B00207A
:1039600010B50302024C1A19136A0B43136210BDFF
:1039700000800050022001494862704700800050DA
:103980000349096802021143014A116070470000AF
:10399000008F0050F0B5059C0602064FF5196960CE
:1039A000AB602E68F027BE43174627433E432E6088
:1039B000F0BD00000080005030B503461C020F4DE2
:1039C000601904680325ED04AC430C43046000292E
:1039D00008D00124E4040C1B07D00125ED04641B6E
:1039E00008D104E09400C46005E0C26003E0540024
:1039F000C46000E000BF00BF30BD00000080005088
:103A0000F0B50C4600210302824E9D19102C04D9FA
:103A10002B680C26B3432B600CE0052C05D92B68D2
:103A20000C26B3431B1D2B6004E02B680C26B3430C
:103A300008332B60230002F0C7F8110A131D27304A
:103A40003A434B555F677179838D97A1AB00724BF9
:103A50005B68F026B343060133436F4E7360D6E0D4
:103A60006D4B5B680F263603B343060333436A4E40
:103A70007360CCE0684B5B680F263605B3430605E0
:103A80003343654E7360C2E0634B9B68F026B343DB
:103A900006013343604EB360B9E05F4B9B680F266D
:103AA0003603B343060333435B4EB360AFE05A4B78
:103AB0001B69F026B34306013343574E3361A6E03A
:103AC000554B5B681B091B010343534E73609EE01B
:103AD000514B5B680F263602B343060233434E4E0A
:103AE000736094E04C4B5B680F263604B3430604C6
:103AF0003343494E73608AE0474B9B681B091B01A7
:103B00000343454EB36082E0434B9B680F26360269
:103B1000B34306023343404EB36078E03E4B1B692B
:103B20001B091B0103433C4E336170E03A4B9B6819
:103B30000F263606B34306063343374EB36066E0BE
:103B4000354B1B690F263602B34306023343324E10
:103B500033615CE0304B1B690F263603B343060329
:103B600033432D4E336152E02B4B1B690F26360435
:103B7000B34306043343284E336148E0264B1B69A8
:103B80000F263605B34306053343234E33613EE02B
:103B9000002139E0204B5B688F000F26BE40334088
:103BA0008E000746B740BB4207D11B4B5B688F00B6
:103BB0000F26BE403343184E7360174B9B688F002F
:103BC0000F26BE4033408E000746B740BB4207D1A8
:103BD000114B9B688F000F26BE4033430E4EB360DF
:103BE0000D4B1B698F000F26BE4033408E000746E9
:103BF000B740BB4207D1084B1B698F000F26BE4060
:103C00003343054E3361491C0829C3D300BF00BFAD
:103C1000F0BD000000800050008F00500202034BF6
:103C2000D1180A68024B1A430A607047008000509E
:103C30000100800030B583681C0924010B46134342
:103C400008252B431C43846030BD0000FFB583B0C2
:103C500004460C9F002002900698202801D10020E5
:103C600006900698C000049908430599084320600F
:103C7000E06B0121C9070843E063FCF779FC0646C5
:103C8000049800287ED1A0605F4884420BD15F4831
:103C9000406910210840102801D102961DE0FCF770
:103CA0002FFD029019E05A4884420BD157484069D1
:103CB00020210840202801D102960EE0FCF720FDCB
:103CC00002900AE05148406940210840402801D153
:103CD000029602E0FCF714FD0290B74221D34A4855
:103CE000844207D149484069102188431030474930
:103CF000486111E04648844207D144484069202188
:103D0000884320304149486106E0404840694021ED
:103D1000884340303D49486100206060304607B02C
:103D2000F0BD0298874203D3002060600298F6E756
:103D3000002F0BD1E06B40004008E0636068000A90
:103D40000002FF3060600298400AE8E70A22029908
:103D5000514308463946FCF7F1F9401D0A2101900C
:103D6000FCF7ECF9451EFF2D20D9E06B4000400820
:103D7000E06379000A23029A5A431046FCF7DEF901
:103D8000401D00E01CE00A210190FCF7D7F9451E18
:103D9000FF2D00D9FF256068000A000228436060FB
:103DA000681C41000298FCF7C9F9B8E76068000A8E
:103DB000000228436060691C0298FCF7BFF9AEE777
:103DC0001020A0601048844207D11048406910219B
:103DD000884310300D49486111E00D48844207D1F5
:103DE0000A4840692021884320300849486106E09C
:103DF000064840694021884340300449486100201A
:103E0000606030468BE70000000003400002005075
:103E100000400340010E052212078918896801221B
:103E200082401143020E05231B07D2189160010E38
:103E30001A4689188A68012181408A43010EC918EF
:103E40008A60704706E0592005490860162008601E
:103E500088200860024800680128F4D170470000FB
:103E60000001005000B50346184600F001F800BDFF
:103E700000BF0B4989690122D20511400029F8D100
:103E8000074908600A280AD100BF0549896901224B
:103E9000D20511400029F8D10D21014A1160704767
:103EA0000000054010B50446092C04DA6100183101
:103EB000C8B201F01FFE10BD0B214143094A5161F8
:103EC000002191611146096901221143054A1161DE
:103ED00000BF044909690122120411400029F8D0E9
:103EE0007047000000E000E010B500BF06E0592078
:103EF0002E49086016200860882008602B4800685A
:103F00000128F4D100BF2A48FCF756FA03225204D4
:103F10000C212748FCF7B2FC2648406833210904ED
:103F200008432449486005200007C06B33218843BB
:103F300005210907C8630846C06B332108430521E2
:103F40000907C8631948C038406933210904884308
:103F50001649C039486108464069332109040843BD
:103F60001249C039486100BF00201049086000BFF5
:103F70001148006A0C21884308300F49086208463E
:103F8000006A032108430C4908620846406A33214D
:103F9000084309494862012008631D20012181402E
:103FA000064A116000BFFCF7CFF910BD00010050B8
:103FB0001CFE2356C040005000000E4000E100E00F
:103FC00010B500BF06E059201349086016200860AC
:103FD00088200860104800680128F4D100BF042040
:103FE000FCF7BEFA1020FCF7ABFC00210720FCF721
:103FF00015FC0A48FCF7C4FB3820FCF797FC08487E
:104000000069042188430649086100BF0020024975
:10401000086000BF10BD00000001005000A24A046B
:1040200000E000E010B54048C07B030001F0CCFD8B
:1040300007495E0605727207720000BF00BF3B4869
:10404000407800283CD0384820384078002816D0E6
:1040500035482038408E3649884208DBFDF7FAFDA6
:104060000020314920394886FCF754FE28E02E48CC
:104070002038408E401C2C492039488620E02A48B0
:104080002038808E962814DB2848007800280BDD25
:10409000FCF740FE0120FDF7BDFD2348C07B03284F
:1040A00002D006212048C17300201F49203988868C
:1040B00006E01D482038808E401C1B492039888628
:1040C00029E019482038808EFF21F531884205DB30
:1040D00004211548C173FDF731FB06E01248203872
:1040E000808E401C10492039888614E00E48203804
:1040F000808E1049884205DB05210B48C173FCF70F
:10410000D3FD06E008482038808E401C064920393F
:10411000888600E000BF00BF0348C07B032801DAA7
:10412000FDF74CFA10BD0000480100206C01002092
:1041300070170000DC05000070B5FCF721FA144987
:1041400008601448006945076D0F022D02D108462A
:10415000046808E0012D03D10D480068440802E01E
:10416000A8000D490C580B4880690007000F461C39
:1041700031462046FBF7E2FF084908600849074836
:1041800000684A108018FBF7D9FF0649086070BD27
:1041900008000020000200500C0000200000002059
:1041A00040420F000400002010B50D215848FCF7D4
:1041B000C7FC8820574988700120C87106215648DD
:1041C000017401214174002053492039C863002142
:1041D0005148C17351A11B3801F0E2FC4C48006802
:1041E0005149884222D051485149C880012049494B
:1041F00048705049487050490870504845494881B6
:10420000FA2008810420C873002008742C2205219C
:1042100040481630FBF7CEFF00213F48817300F085
:1042200091F80D213A48FCF7DFFC55E038488088CA
:104230003F49C8803648C0680221084040083D49CF
:1042400048703348C0680421084080083A49087023
:104250002F48007BC007C00F2E4948702C49886842
:104260002D49173900F0BEFA294908692A49C91EA3
:1042700000F0B8FA264948692749491C00F0B2FA0B
:10428000234988692449491D00F0ACFA2049C869CE
:104290002149093100F0A6FA1D48006A000C1D49A9
:1042A00048811B48008C08811948406A0002000EB2
:1042B000C8731748808C08741549886A15491631E7
:1042C00000F090FA1248808DC1B2124881761048F1
:1042D000008EC1B2104881731948806B002801D14B
:1042E000012000E000200C492039087008460078C1
:1042F000002802D00020074948810648C07B0549B4
:10430000887305221631481FFBF742FF10BD0000DD
:10431000F4000020AE01002048010020322E352696
:10432000782E782020202000161018200130000060
:104330002C000020340000203A000020B80B0000C0
:104340000042005010B52648264908602648C0881B
:104350004860264800F050FA224988602448407896
:1043600024494978490008432349097889000843CA
:104370001C49C8601D48143000F03EFA1949086114
:104380001A48183000F038FA1649486117481C30AE
:1043900000F032FA134988611448203000F02CFAFA
:1043A0001049C86111481730807B08631048408964
:1043B00000040F49098908430A4908620C48C07B78
:1043C00000040B49097C0843064948620848163036
:1043D00000F012FA034988620548807EC86210BD69
:1043E00016101820F40000202C00002031010020BD
:1043F000AE010020340000203A0000207047000089
:10440000FFF7A0FF0D210C48FCF7EEFB0121002077
:10441000FDF782FB09484078002805D00020FDF711
:10442000F9FB322001F02DFE00200549886008606C
:10443000FEF7C2FF00BFFEE7F400002028010020C5
:10444000804200507CB59748007806287ED1002035
:104450009449087006219348801CFBF74DFF0546E0
:1044600091488078019001A92846FBF78DFF8D487F
:10447000408AFF214131884201DB012000E0002019
:1044800004468948807869460979884234D068466C
:1044900000798549887008462030C07B02280BDDF2
:1044A00000200090897824225143804A88186E2386
:1044B00010221221FFF79EF868460079012801DCDE
:1044C000012100E0002101917748C1786846007918
:1044D000814211D0684600797349C8700846407817
:1044E000002809D0002000907148027808468178A1
:1044F00000233020FDF766FB6B480079A04218D0FE
:1045000069482030C07B022813DD674804710079B8
:10451000002808D00020612310220A21009065485D
:10452000FFF768F805E00023612210210A20FEF75A
:104530007BFF5D488078002824D1FDF725F8022311
:10454000002230218020FEF76FFF00E01AE056487D
:104550002030807B002805D00422002156A0FFF7E0
:104560008DF807E004200023102280210090574896
:10457000FFF740F8FFF7B6F87D20000101F081FD5C
:10458000FFF73EFF47484078012873D15048008824
:10459000002804D04E480088401E4D4908804D48F0
:1045A000007900285CD04B488079032858D13D48D9
:1045B000C08948490989884215DB464800780028A7
:1045C0000ED14348008800280AD10090364801786F
:1045D00000231A460420FDF7F5FA96203C4908808E
:1045E00000F0E6FF3CE03B484089002838D03948DD
:1045F0000078012834D137488089002805D0354813
:104600008089401E334988812AE03248C1780120E0
:10461000FDF782FA30484078002821D00120FCF7CD
:10462000B3FF0223002210218020FEF7FDFE1E486A
:104630002030807B002805D00422002127A0FFF72E
:104640001DF807E004200023102280210090284854
:10465000FEF7D0FF0623002210218020FEF7E4FEA3
:1046600024480088002806D022480088401E21499E
:1046700008800CE015E00B48008A1F49884206DBE1
:1046800001F09AF901F064FA64201A4908800020C8
:10469000044948701948006A0121C90208431749B2
:1046A00008627CBD9A01002028010020468E00008F
:1046B0006C010020AE8F0000426174746572792035
:1046C000546F6F204C6F77210000000042A2000061
:1046D0005A000020AE010020980000202020204D2C
:1046E0004943204953204F46462020200000000027
:1046F000C290000058000020EA03000000000E40B5
:1047000010B500BF06E0592018490860162008605F
:1047100088200860154800680128F4D100BF1448BB
:104720004069072109020843114948610846806829
:10473000042108430E49886000200E4908600320C8
:104740008860642048600C48086002210820FEF759
:1047500063FD082001218140084A116000BF00BFAD
:1047600000200249086000BF10BD00000001005099
:1047700000020050000001401500006800E100E068
:1047800012480088002804D010480088401E0F49B5
:1047900008800F480088002804D00D480088401E7B
:1047A0000B4908800B480088002805D0094800887C
:1047B000401E0849088005E0074806490880012096
:1047C0000649087001200649886070475E00002095
:1047D000600000206200002010270000640000201C
:1047E00000000140020E0A700202120E4A7002041A
:1047F000120E8A70C870704701460A7812064B780C
:104800001B041A438B781B021A43CB781A431046B9
:104810007047000030B5FF203349CA69411C114080
:1048200000295FD058E030490968C8B22F49497C57
:10483000002906D001290AD0022912D003294AD121
:1048400025E05A2802D10121284B597443E0A528BC
:1048500003D10221254B597402E00021234B5974E6
:1048600039E0012801DB322803DB00211F4B59749A
:104870000CE01E49897C332359431D4BC918203154
:1048800088740021194B19740321597423E01749C6
:104890000B7C897C33246143154C09192031897CB8
:1048A0008B420CDA114B197C4B1C104C23742346A1
:1048B0009B7C332463430E4C1B1958540AE000219F
:1048C0000A4B5974FC2805D11946897C491C0907F3
:1048D000090F997400BF00BF0349C969C907C90F0F
:1048E0000029A0D130BD000000001540EC060020DA
:1048F000CC03002070B504460D4660682843606014
:104900000548844203D10C20FEF77CFC02E00D2018
:10491000FEF778FC70BD000000000540F0B587B0E0
:1049200004460D46274801460EC9C06803AE0EC6B0
:10493000069000200290244840690321090608409F
:10494000060E214880690F2109020840070A00204D
:1049500020630320E060A0681C490840A060012E8D
:1049600004D1FBF78DFEB10003AA5050002D26D0D4
:10497000B10003AA5058791CFBF7E0FB6908401806
:1049800029460190FBF7DAFB801E0290104902983D
:1049900088420FD9B10003AA5058791CFBF7CEFB0F
:1049A000E900401829460190FBF7C8FB0009801E6A
:1049B000606204E00321090702980843606207B0BF
:1049C000F0BD000040AB0000000200500FFFF0FF00
:1049D000FFFF000010B53248006800283FD0304883
:1049E00000683049096888421CD92F4909682F4A54
:1049F00088182C490A682E49096800F028FA2948C5
:104A00000068294948602A48006826490968401812
:104A1000274908602248006822490968401A20494D
:104A200008603BE020490968204A88181C490A6848
:104A30001F49096800F00BFA194800681A494860D4
:104A40001748006817490968884202D101201949AE
:104A50000870002016490860114908601EE01648D9
:104A60000078002811D11448407805280DD113484A
:104A7000806813490968884207D010488068002878
:104A800003D10F4800680D4988600A480078002863
:104A900004D00020044948600649087010BD000099
:104AA000B8000020D00000200005064000010640AC
:104AB000B4000020F0000020A80000200000064004
:104AC000C800002010B512480068124909688842E1
:104AD0001DD2114844690069104A811822461048C5
:104AE000006800F0B4F90E48006800190C4908602D
:104AF000074800680019064908600846006805492B
:104B00000968884203D2074800680349486110BD1C
:104B1000C0000020C400002000050640000106403F
:104B2000BC000020D000002070B500246048C4798B
:104B30002402807904195E48C078032873D004DC0D
:104B4000012807D002286DD115E021282ED0222877
:104B5000F9D144E0122C01D2204600E01220044694
:104B6000544909680868214600F0A0F90021084668
:104B700000F0E0F999E04F4800684068C5784D487A
:104B800000684068807829024518AC4201D220466E
:104B900000E028460446474909684868214600F075
:104BA00085F90021084600F0C5F97EE0092C01D204
:104BB000204600E0092004463E48006840693C4920
:104BC0000979890045583B490968496848192146CF
:104BD00000F06CF90021084600F0ACF965E03548BA
:104BE000006800693249097989004058A04201D91A
:104BF000204606E02F48006800692D4909798900A0
:104C0000405804462B490968C968294A127992001C
:104C10008858214600F04AF90021084600F08AF938
:104C200043E000E034E022488078042823DA214879
:104C3000006880681E498978890040580078A04241
:104C400001D9204607E01B48006880681849897828
:104C50008900405800780446164909688968144A52
:104C6000927892008858214600F020F900210846E9
:104C700000F060F919E01048C068022108430E49AD
:104C8000C8600846C069022108430B49C8610CE0AE
:104C90000948C068022108430749C8600846C0693E
:104CA000022108430449C86100BF00BF70BD000075
:104CB000A8000020D80000200005064010B50446DA
:104CC00008220249204600F0C2F810BDA8000020CA
:104CD00070B557484468006905072D0F042020402F
:104CE000002815D004205249486008464069C00792
:104CF000C00F002806D008460069902108434C499F
:104D0000086105E04A4800698021884348490861F4
:104D1000E007C00F002821D0012045494860284005
:104D2000002807D0084600699021084340490861DF
:104D300000F046FB02202840002805D03C480069CE
:104D4000102188433A49086104202840002805D0F2
:104D50003748006990210843354908610220204006
:104D6000002863D0E00FC007002811D00120C00741
:104D70002F4948602F48C068012108432D49C86069
:104D80000846C069012108432A49C86100F0E8F8D3
:104D9000012000042040002805D0012000042449FF
:104DA0004860FFF717FE012040042040002805D08E
:104DB000012040041E494860FFF784FE0120800462
:104DC0002040002803D001208004194948600120B8
:104DD000C0042040002805D00120C00414494860C8
:104DE000FCF7D0FC012000052040002803D0012062
:104DF00000050F494860012040052040002803D0ED
:104E0000012040050A494860012080052040002813
:104E100003D001208005064948600120C0052040DC
:104E2000002803D00120C0050149486070BD000082
:104E3000000006400005064010B503E00B78037043
:104E4000491C401C1346521E002BF7D110BD10B553
:104E500003E00B780370491C401C1346521E002BC4
:104E6000F7D110BD10B50C4B18600C4B19600C4BF2
:104E70001A60094B1B681B68DB790A4C23607D2391
:104E80001B01094C2361084B80331B690124234318
:104E9000054C8034236110BDD8000020E0000020C4
:104EA000E4000020D00000200000064070B5054658
:104EB0000C461B48006884421CD919480068281811
:104EC0001849086016480068201A174908601748F2
:104ED000806880210843154988600968144A881849
:104EE0000F490A682946FFF7B2FF0D4800680F49CD
:104EF000486013E000200B4908600B4908600B482C
:104F0000806880210843094988600968084A881830
:104F100022462946FFF79BFF0448446070BD00000D
:104F2000D0000020B4000020B8000020000506409A
:104F300000010640054A10600022054B1A60054A30
:104F40001160054A1268054B5A617047BC00002089
:104F5000C0000020C4000020D00000200005064052
:104F600010B5082218491948FFF771FF1748007853
:104F700060210840002804D0202805D0402813D103
:104F80000AE000F047F81CE011480068002802D051
:104F90000F480068804714E00E480068002802D0DF
:104FA0000C48006880470CE00B48C06802210843A9
:104FB0000949C8600846C069022108430649C8611A
:104FC00000BF00BF10BD000000010640A800002087
:104FD000E0000020DC0000200005064030B503465C
:104FE000002110E00C010A4D601902681407240F1B
:104FF0009C4207D10C012D1D601902680224144344
:10500000046002E0491C0829ECDB00BF30BD000051
:105010000805064070B50020C1490860C149086014
:10502000C148007880210840002873D0BE484078ED
:10503000002837D006281ED0082802D00A286AD1B6
:105040001CE0BA480068BA490968BA4A8918087069
:10505000B748806880210843B549886001204860CE
:105060000846806980210843B149886100210846CB
:10507000FFF760FF8FE0FFF757FD8CE0AE48006858
:10508000AB490968AB4A89180870A9488068802133
:105090000843A74988600120486000210846FFF7BF
:1050A00049FF78E0A048007880281DD10020A3495E
:1050B00009684968C97940221140002901D00121BD
:1050C00008439E4909684968C9792022114000298E
:1050D00004D09B49097849000143C8B29449096842
:1050E000944A8918087036E08F480078812806D1E4
:1050F00000218F4800688F4A801801702BE08A4891
:105100000078822827D1884800790407240F224696
:1051100000200FE040E031E00501854E0836A91976
:105120000B681D072D0F954203D10501361DA919E6
:1051300002E0401C0828EFDB00BF0D680226354066
:10514000002D01D0012000E0002079490968794A4A
:105150008918087000BF002075490968754A8918C8
:105160004870734880688021084371498860022034
:10517000486000210846FFF7DDFE0CE06C48C0687F
:10518000022108436A49C8600846C06902210843F1
:105190006749C86100BFC1E06348407805284AD02C
:1051A00004DC012807D0032870D165E009284FD01E
:1051B0000B28F9D190E05C48807800282BD15A4A1E
:1051C00012791107090F00BF22E05E4A05231B0276
:1051D000D2180301D21892681207120F8A4216D110
:1051E00001228240584B1B681A40002A0FD1554AB1
:1051F00005231B02D2180301D218D26802239A4356
:10520000504B052424021B1904011B19DA60401CB1
:105210000828DADB06E044488078012802D1002023
:1052200047490870424880688021084340498860A7
:105230000020486071E03C488078444908603C4860
:105240008068802108433A4988600020486064E013
:1052500035488078354908603D480068002802D00C
:105260003B480068804732488068802108433049C5
:1052700088600020486050E02B48807800281CD1CE
:105280002948007903071B0F002112E038E00C01C8
:10529000274D0835601902681407240F9C4207D176
:1052A0000C012D1D6019026802241443046002E001
:1052B000491C0829EBDB00BF05E01B48807801286A
:1052C00001D11F4908701A48806880210843184995
:1052D00088600020486020E0134880781649086004
:1052E0001C480068002802D01A480068804710480F
:1052F0008068802108430E498860002048600CE0E7
:105300000B48C068022108430949C8600846C069C3
:10531000022108430649C86100BF00BF70BD0000FC
:10532000B4000020B8000020A8000020CC0000201D
:105330000005064000010640D4000020D8000020EF
:10534000B000002000000640EC000020C800002053
:10535000E8000020E4000020154816490968414390
:10536000154A5161002191610521116100BF00BF03
:10537000114909690122120411400029F8D00021C5
:105380000D4A116100BF0D480069400840000B49FB
:105390000861FF20103009498039486008460068DC
:1053A000FF2110310843054980390860704700002B
:1053B000A08601000400002000E000E0800006401C
:1053C0000021144A1160144A1160144A1160144AF1
:1053D0001160144A1160144A1160144900220A60D5
:1053E0004A60002010E012490522120289180201C9
:1053F00089188968802291430D4A05231B02D2181F
:105400000301D2189160401C0828ECDB0021084AF7
:1054100091607047B4000020B8000020BC0000205C
:10542000C0000020C4000020EC000020A8000020E4
:105430000000064010B58AB03248417800788142B9
:105440005DD03048407880012F49441801A920469A
:1054500000F074F801283FD1242201A92B48FAF763
:1054600097FE2B48006A2B49441840222A492046BF
:10547000FFF7E2FC402026494862FDF7BDFF2748C0
:10548000807B002805D00322002125A0FEF7F6F836
:1054900007E0032000231022802100902548FEF71A
:1054A000A9F8FEF71FF919480938827E17495820D4
:1054B00000F0AEF8642000F0E4FD14482030C2781B
:1054C00001460E39592000F0A3F87D20000100F0BC
:1054D000D8FDFEF795FF0BE00D48006A0D49441812
:1054E000402215492046FFF7A7FC402008494862A2
:1054F00004484078401C4107490F024841700AB0F7
:1055000010BD0000CA030020CA0100207501002060
:105510000005064000010640A86300004801002085
:1055200020205353494420536574204F4B212020A1
:1055300000000000429C0000E863000070B50446D3
:105540000D462178641CAA2901D0002070BD217865
:10555000641CEE2901D00020F8E720786874641CF0
:10556000687C002800D1F1E76A7C21462846FAF7DA
:105570000FFE687C04192178641CAA2901D0002040
:10558000E4E72178641CEE2901D00020DEE72178D1
:1055900023204155641C405D002800D1D6E723201C
:1055A000425D214628461230FAF7F2FD0120CDE790
:1055B000024840890149888170470000AE010020FF
:1055C0000149C8627047000000420050002808D11D
:1055D000084909680322120591438918054A116098
:1055E00007E0044909680322120591438918014A1A
:1055F00011607047004000500148806AC0B2704797
:10560000004200500149886270470000004200508B
:105610007CB506460C4615465A2168460171A521FF
:105620004171681CC1B268468171C671FC2100914C
:10563000042101A800F0A8F9002C06D0012000F0F8
:1056400020FD2946204600F09FF90121684600F020
:105650009BF97CBDF0B589B000249148C07C90498D
:10566000897C88427CD08E48C07C332148438D4958
:105670000F5C8B48C07C332148438A494018451C45
:105680008748C07C33214843864940182030807CBD
:10569000401EC6B2052F74D008DC012F0DD0022F9A
:1056A00023D0032F28D0042F6CD1AAE0062F6AD074
:1056B000072F69D0AC2FF7D1D6E00120FCF7AAFA6A
:1056C000012079494870042008707848C07B03287D
:1056D00003DA02217548C17302E006217348C173E1
:1056E0000020724920398886CCE0032229466F4881
:1056F0001738FAF74DFDC5E06B48047801E0601CEF
:10570000C4B2287861006A4A89184978884201DC65
:10571000042CF4DB01E0601EC4B228786100644A06
:10572000515C884201DD002CF5DC5F480078A04226
:1057300066D05D4804700078002826D1FCF78AFA0C
:105740000020FBF721FF0223002230218020FDF7FB
:105750006BFE5648807B002807D00422002100E021
:105760009BE054A0FDF78AFF07E0042000231022ED
:10577000802100905448FDF73DFF0020FCF74AFAD5
:105780001FE047E07DE04FE067E0012C01DC0120F5
:1057900000E00020044644488078A04211D04248EE
:1057A000847042482038407800280AD000200090B9
:1057B0003D4802783D482038817800233020FCF7AE
:1057C00001FA3A48C07B02281ADD374800780128E0
:1057D00008DD002003461022122100903B48FDF70F
:1057E00009FF0DE000203049009009782422514340
:1057F000364A903A8818002310221221FDF7FAFE4B
:1058000040E00020284948700870FCF723FAFBF7B5
:105810004BFA37E00120244948700420087000202A
:105820002249203948862DE001212048C1731E48B5
:105830008676324629460930FAF7AAFC2448C08801
:10584000011268460171224881796846417102223D
:1058500001A95720FFF7DCFE14E032462946124822
:10586000C01CFAF795FC0DE00F480078002807DD12
:1058700031462846FCF710FA00200C4920394886AA
:1058800000E000BF00BF0648C07C401C0007000FBE
:105890000349C874384609B0F0BD0020FBE700009A
:1058A000EC060020CC0300206C0100204801002001
:1058B0004C64000020205253534920546F6F204CF9
:1058C0006F7721200000000042A300008A8F0000B3
:1058D0002C00002010B500BF06E0592025490860C3
:1058E0001620086088200860224800680128F4D14A
:1058F00000BF00212048417400201F49C8748874EB
:105900001E48FAF759FD0022032109061B48FAF741
:10591000B5FF05200007406B3021884305210907AA
:1059200048630846406B3021084305210907486356
:105930001048C03800690921C90388430D49C0399E
:1059400008610846006908610D48FEF763FAE12125
:1059500049020C48FEF7E2FF00210D20FDF798FCFC
:1059600001210848FEF7C6FF00BF0020014908607A
:1059700000BF10BD00010050EC060020113D805713
:10598000110000040000154010B50246002000BFC1
:105990000DE000BF074B9B690124E4052340DB0DAC
:1059A000002BF7D1135C034C2360431CD8B2884210
:1059B000EFDB10BD0000154010B5552200213A481C
:1059C000FDF7ACF8402238213748FDF7A7F8002250
:1059D00032213548FDF7A2F81D2201213248FDF79A
:1059E0009DF8152202213048FDF798F8ED22032199
:1059F0002D48FDF793F8102204212B48FDF78EF86F
:105A0000002205212848FDF789F80D2206212648A5
:105A1000FDF784F808220A212348FDF77FF8FF22CA
:105A20000B212148FDF77AF8FF2209320E211E488A
:105A3000FDF774F8FF220F211B48FDF76FF82C22A9
:105A400012211948FDF76AF8202211461648FDF781
:105A500065F8FF22103221211348FDF75FF811226B
:105A600022211148FDF75AF8092223210E48FDF79B
:105A700055F803222C210C48FDF750F800222F2165
:105A80000948FDF74BF80A2231210748FDF746F88F
:105A9000012232210448FDF741F8012000F046F8C8
:105AA000012000F031F810BD4000002070B5044620
:105AB0000D46052C06DA20461230C1B22A460248AD
:105AC000FDF72CF870BD00004000002010B5044622
:105AD000002C06D0FF2289320E210548FDF71EF862
