:020000040000FA
:10000000080F0020F100000011010000D5000000E1
:1000100000000000000000000000000000000000E0
:1000200000000000000000000000000015010000BA
:10003000000000000000000017010000190100008E
:100040001B0100001B0100001B0100001B01000040
:100050001B0100001B0100001B0100001B01000030
:10006000A14800001B0100001B0100001B01000053
:100070001B010000354900001B0100001B010000AE
:100080001B0100001B0100001B0100001B01000000
:100090001B0100001B0100001B010000F14D0000CE
:1000A0001B0100001B010000693900001B0100005A
:1000B0001B010000A10200001B0100001B01000049
:1000C0000348854600F0CAF800480047D1640000A4
:1000D000080F002004207146084202D0EFF3098087
:1000E00001E0EFF308807146004A10475D1B0000F5
:1000F0000A480B4901600B4901600B4901600B4A3A
:100100000B491160002101600A4880470A480047F6
:10011000FEE7FEE7FEE7FEE7FEE7FEE70001005030
:100120005900000016000000880000002400005064
:10013000A55A00001D450000C100000030B50B4667
:10014000014600202022012409E00D46D5409D42B1
:1001500005D31D469540491B254695404019154637
:10016000521E002DF1DC30BD70B50024254600285C
:1001700001DA01244042002901DA01254942FFF752
:10018000DDFFAC4200D04042002C00D0494270BD9F
:1001900003460B439B0703D009E008C9121F08C0A0
:1001A000042AFAD203E00B780370401C491C521E4B
:1001B000F9D27047D2B201E00270401C491EFBD256
:1001C00070470022F6E710B513460A460446194662
:1001D000FFF7F0FF204610BDF0B51FB40646002023
:1001E00082B005464024019100901BE0019922460F
:1001F0000F46304600F020F8049A059B801A99417A
:1002000010D310461946224600F03AF8361A8F41AC
:100210000197224601200021009F00F031F8381894
:100220004D4100902046641E0028DFDC019B0098B1
:100230002946324607B0F0BD10B5202A04DB084637
:10024000203AD040002110BD0B46D340D04020249E
:10025000A21A91400843194610BD0000064C012522
:10026000064E05E0E36807CC2B430C3C984710345E
:10027000B442F7D3FFF728FFD0B00000F0B0000081
:1002800010B5202A04DB0146203A9140002010BD21
:10029000914020239C1A0346E3401943904010BD2F
:1002A000134800688105890D124800784200114802
:1002B000801C81520E4840688005800D0D49C88120
:1002C0000B4800698005800D088209484069800557
:1002D000800D488208460078062803DA0846007830
:1002E000401C0870012003494870014908637047A9
:1002F00000000E409601002070B502460B46002417
:100300001AE0002112E04800165A481C4000105A1A
:10031000864209DD4800155A481C4000105A4E001C
:100320009053481C40001552481CC1B2581E001B77
:100330008842E8DC601CC4B2581EA042E1DC5810C0
:100340004000105A70BD0000002010E00C49096AFE
:100350000122D20211430A4A116200BF0849096B07
:1003600008221140C9080029F8D1411CC8B232281E
:10037000ECDB0121034A517000211170704700002D
:1003800000000E409601002030B50346002006E034
:100390001C5C15012D184D5D6C401C54401C102830
:1003A000F6DB30BDF8B506460F4615460022394645
:1003B0003046FFF7E9FF01240EE0304603F004FE6B
:1003C000304603F0E7FD304602F056FF224639463C
:1003D0003046FFF7D9FF641C681EA042EDDA3046B4
:1003E00003F0F2FD304603F0D5FD2A46394630468B
:1003F000FFF7CAFFF8BD00000A789200094B9A5A2D
:10040000824203DB0A78521E0A700AE002E00A7890
:10041000521C0A700A789200024BD218528882420B
:10042000F5DD704722660000810F8900064A8918B1
:100430004968C306DB0E01229A401143820F9200E5
:10044000014BD2185160704700020050F3B589B0DB
:100450000C460120000453490862099800280ED177
:1004600008460068012108434E490860012000F059
:100470009FFA002006904C48089002250EE049485B
:1004800000680421084347490860102000F090FAF2
:100490000120C00406904548089004254448844241
:1004A00004D84010844201D9002712E04148844218
:1004B00005D84010844202D90127640009E03E4873
:1004C000844205D84010844202D30327A40000E0F0
:1004D00057E00020C043039000200190029034E0D8
:1004E00029460898FFF72AFE059034490598884266
:1004F0002AD933490598884226D2022007901EE067
:10050000059E07994E432B48864215D340008642EC
:1005100012D8A64201D9301B00E0A01B0490039919
:100520000498884208D20498039001950798029095
:100530000398002800D106E00798401C0790214945
:1005400007988842DCD900BF6D1C212DC8D9B8039B
:10055000069908430199891E490208430299891E98
:10056000084310490862042000F022FA781C019A1E
:10057000504301460898FFF7E1FD029948430BB04C
:10058000F0BD0998002803D10F480649086202E02F
:100590000E4804490862042000F00AFA00F068F8E6
:1005A000EDE7000000020050001BB7000080510181
:1005B00000C2EB0B00E1F50580F0FA02006A1800BA
:1005C0000024F400010200002EC200006FD60000DB
:1005D000024909680143014A116070470002005056
:1005E00010B503F03FFE0148006810BD0000002078
:1005F000FEB5002002901AA0006800901948046A15
:1006000000132040002801D00020FEBD0120C004BE
:100610002040002801D0144D00E0144D012040047A
:100620002040002801D02846EFE703208003204027
:10063000800B69460A5C0192E005C00D861C1F20F4
:1006400040022040400A871C019A7A431146AA08BA
:1006500072431046FFF772FD800002900298D4E7C3
:10066000010202040002005000805101001BB7008B
:10067000FEB5002002901AA0006800901948046A94
:1006800000132040002801D00020FEBD0120C0043E
:100690002040002801D0144D00E0144D01204004FA
:1006A0002040002801D02846EFE7032080032040A7
:1006B000800B69460A5C0192E005C00D861C1F2074
:1006C00040022040400A871C019A7A431146AA083A
:1006D00072431046FFF732FD800002900298D4E783
:1006E000010202040002005000805101001BB7000B
:1006F000FEB5002002901AA0006800901948046A14
:1007000000132040002801D00020FEBD0120C004BD
:100710002040002801D0144D00E0144D0120400479
:100720002040002801D02846EFE703208003204026
:10073000800B69460A5C0192E005C00D861C1F20F3
:1007400040022040400A871C019A7A431146AA08B9
:1007500072431046FFF7F2FC800002900298D4E743
:10076000010202040002005000805101001BB7008A
:10077000FEB5002002901AA0006800901948046A93
:1007800000132040002801D00020FEBD0120C0043D
:100790002040002801D0144D00E0144D01204004F9
:1007A0002040002801D02846EFE7032080032040A6
:1007B000800B69460A5C0192E005C00D861C1F2073
:1007C00040022040400A871C019A7A431146AA0839
:1007D00072431046FFF7B2FC800002900298D4E703
:1007E000010202040002005000805101001BB7000A
:1007F00070B504462248C0681021084005462148CB
:10080000844200D904462048844200D204461C4851
:100810000068042108431A490860102000F0C8F855
:10082000174800690721084315490861084680698F
:100830000009000188610846C068C007C00F002891
:1008400005D061000020FFF701FE04460AE06100C8
:100850000120C004FFF7FAFD04460948C0681021D2
:10086000084005460121022000F010F8002D05D1B6
:10087000034800680421884301490860600870BD8E
:100880000002005000A24A0440787D0170B5044681
:100890000D461548C06810210840064612480068F9
:1008A000084311490860102000F082F80E480069E2
:1008B000C008C000C01D0C490861084680690009D5
:1008C00000012843886108460069C008C000204331
:1008D000086103F0C7FC002E05D103480068102111
:1008E00088430149086070BD00020050FEB5002336
:1008F0000024264D6F682E68AD680197009602951A
:1009000005016D0F002D2CD08500AD0FAD006E469A
:1009100075591F4EAB1905016E0FC501ED0EAE40A6
:100920001D68B5430D431D601A4DA8420BD1184DEB
:10093000103DED69FF260136B5430E403543144E98
:10094000103EF5610DE0144DA8420AD1104D103D46
:10095000ED6901267602B5430E4035430C4E103E3C
:10096000F56185032D0E002D0ED00503AD0FAD00F2
:10097000074E0836AC1985032E0E8505ED0EAE40E8
:100980002568B54315432560FEBD000094B0000006
:10099000100200501400C0571500E05703490969C0
:1009A000382291430143014A11617047000200500F
:1009B0000146074A05E01046521E002801DC0020CF
:1009C00070470448C06808408842F4D10120F7E726
:1009D00080F520000002005008B51C48007800286F
:1009E00032D01A480078401EC1B218480170007811
:1009F000002829D116480078002825D115484078CC
:100A0000002821D0012000F0F7FD02230022102150
:100A1000802002F08FFD0D482038807B002805D013
:100A2000042200210CA002F067FE07E0042000234E
:100A30001022802100900D4802F034FE062300228F
:100A40001021802002F076FD08BD00006401002026
:100A5000AA010020940000202020204D4943204975
:100A600053204F464620202000000000249600001E
:100A70000021084628E042021F231B03D11822222E
:100A8000134BDA601A46516001221A6100BF00BFA1
:100A900000BF00BFBFF36F8F00BF00BF00BF00BF2C
:100AA0000B4A1269002AFBD1094A126840231A40F6
:100AB000002A05D0064A12681A43054B1A6000E066
:100AC00000BF411CC9B208460728D4DD70470000AA
:100AD00000C00050F8B505460026324F5DE0F01921
:100AE000C10F0918C9030C0CA1001F22120388189A
:100AF00000F0A2FE401C002825D1B44207D1FFF728
:100B0000B7FF0020284908802849088047E0611E77
:100B100089001F221203881800F08EFE401C002856
:100B20000FD0AC4207DAFFF7A3FF00201E49088070
:100B30001E49088004E0601B1C4908801A48048094
:100B40002DE0274629E0BC4208D1601C401B174914
:100B50000880012080021449088020E0611C89007F
:100B60001F221203881800F067FE401C002812D1D3
:100B7000601CA84207DAFFF77BFF00200A490880C3
:100B80000A49088006E0601C401B08490880601C78
:100B90000549088003E0601C86B2BE429FDD00BFAD
:100BA000F8BD0000FF0300005400002056000020A4
:100BB00070B505460C4603F03FF91848006801215E
:100BC0000843164908602046FFF784FF214628465F
:100BD00000F02AF8002000F049FE0646104903F014
:100BE00091FE012000F042FE06460D49091D03F06A
:100BF00089FE022000F03AFE06460949083103F05A
:100C000081FE06480068400840000449086000BFB3
:100C100000200449086000BF70BD000000C0005003
:100C2000350100200001005070B505460E46002435
:100C30000CE008490988091989001F221203881845
:100C400000F0FAFDA1006850601C84B2B442F0DBF1
:100C500070BD00005600002070B506460D4603F03A
:100C6000EBF8284800680121084326490860264817
:100C700000884019401E2549884206DDFFF7F8FE2E
:100C800000202349088020490880002422E01E4AD1
:100C90001288A21892001F231B03D118A200B0587B
:100CA0002122184BDA601A465160906001221A61C5
:100CB00000BF00BF00BF00BFBFF36F8F00BF00BF0A
:100CC00000BF00BF0F4A1269002AFBD100BF601CA1
:100CD00080B20446AC42DADB0B4800880C4908803D
:100CE00009480088401908490880064800684008FB
:100CF00040000449086000BF00200649086000BFAA
:100D000070BD000000C0005054000020FF03000030
:100D1000560000200001005000B589B000F0AEFC84
:100D20000E48807B002805D0022200210CA002F092
:100D3000E3FC07E0022000231022802100900D48F0
:100D400002F0B0FC0C4A0DA101A805F0C7F804227E
:100D5000002101A802F0D0FC09B000BD4401002030
:100D600020436F6E6E656374696E67204150212069
:100D700000000000A49E000071010020535349446C
:100D80003A25730000B589B000F078FC0E48807BEE
:100D9000002805D0022200210CA002F0ADFC07E0E3
:100DA000022000231022802100900D4802F07AFCDE
:100DB0000C4A0DA101A805F091F80422002101A818
:100DC00002F09AFC09B000BD44010020436F6E6E32
:100DD000656374696E6720484F535421000000001A
:100DE000A49F000071010020535349443A25730029
:100DF00038B54448007801287ED14348C06B424949
:100E0000886342484078002872D008462030407CF1
:100E1000012822D1002000F0EFFB02230022102144
:100E2000802002F087FB38482030807B002805D0E6
:100E30000422002136A002F05FFC07E0042000231A
:100E4000102280210090374802F02CFC062300225B
:100E50001021802002F06EFB21E0002000F0CCFB8E
:100E6000022300221021802002F064FB264820305B
:100E7000807B002805D0042200212BA002F03CFC3E
:100E800007E0042000231022802100902B4802F06C
:100E900009FC062300221021802002F04BFB1A4996
:100EA000886BE1210901FFF749F904460423402238
:100EB000022102F0BBFB1449886BE1210901FFF715
:100EC0003DF90D463C212846FFF738F90446042336
:100ED0005822022102F0AAFB0B49886B3C21FFF744
:100EE0002DF90C46042370220221204602F09EFBBD
:100EF00000201349087000E002E0124812490880FF
:100F000038BD0000AA010020240100209400002028
:100F100053706B2054696D6520203A20203A2020C0
:100F2000000000002499000052656D2054696D6531
:100F300020203A20203A202000000000249A0000BF
:100F400064000020102700006200002008B522483D
:100F50004088002805D020484088401E1E4948800F
:100F600038E01D480078002806D0012806D0022865
:100F700003D003282CD128E000BF2AE0002000F095
:100F80003BFB022300221021802002F0D3FA1348F9
:100F9000807B00280AD00422002111A002F0ACFBC3
:100FA0000622002113A002F0A7FB0DE0042000237D
:100FB000102280210090144802F074FB06230022C6
:100FC0001021802002F0B6FA03E000F057F800E0AC
:100FD00000BF00BF08BD00009400002044010020B5
:100FE00020202020576972656C65737320202020B3
:100FF00000000000202020436F6E666572656E63FE
:10100000652020200000000094AB000008B50020FF
:101010001149C870114948700F49087100F0ECFA85
:10102000022300223021802002F084FA0C48807BC9
:10103000002805D0042200210AA002F05DFB07E091
:10104000042000231022802100900B4802F02AFB8C
:10105000062001F0B1FF08BDAA0100209400002085
:1010600044010020202020494420526570656174AD
:101070002120202000000000A4A6000038B5012097
:101080007F49C8707F4948707D4908717E48407C1F
:10109000022878D008460078012874D17A48407C2C
:1010A000012821D1002000F0A7FA022300221021FC
:1010B000802002F03FFA7448807B002805D004228B
:1010C000002172A002F018FB07E004200023102288
:1010D00080210090724802F0E5FA062300221021D8
:1010E000802002F027FA20E0002000F085FA022399
:1010F00000221021802002F01DFA6348807B002826
:1011000005D00422002167A002F0F6FA07E00420CF
:101110000023102280210090674802F0C3FA0623C2
:1011200000221021802002F005FA57492039886BEF
:10113000E1210901FFF702F80446042340220221BD
:1011400002F074FA50492039886BE1210901FEF759
:10115000F5FF0D463C212846FEF7F0FF0446042328
:101160005822022102F062FA47492039886B3C215B
:10117000FEF7E4FF0C46042370220221204602F011
:1011800055FA78E0FFE73E480078002806D00128AD
:1011900005D002282AD003286CD149E000BF0020E6
:1011A00000F02AFA022300221021802002F0C2F966
:1011B0003548807B00280AD0042200213FA002F09D
:1011C0009BFA0622002142A002F096FA0DE00420CC
:1011D0000023102280210090424802F063FA062387
:1011E00000221021802002F0A5F943E0002000F049
:1011F00003FA022300221021802002F09BF92248EA
:10120000807B002805D00422002137A002F074FA68
:1012100007E004200023102280210090374802F0CC
:1012200041FA062300221021802002F083F921E0F8
:10123000002000F0E1F9022300221021802002F0BA
:1012400079F91148807B002805D0042200212CA0C8
:1012500002F052FA07E004200023102280210090BF
:101260002C4802F01FFA062300221021802002F0F1
:1012700061F900BF00BF0249087801F09DFE38BD4A
:10128000AA010020940000204401002053706B202C
:1012900054696D6520203A20203A2020000000008B
:1012A0002499000052656D2054696D6520203A2014
:1012B000203A202000000000249A00002020202056
:1012C000576972656C657373202020200000000050
:1012D000202020436F6E666572656E636520202056
:1012E0000000000094AB0000204D494320495320EA
:1012F00057414954494E47200000000024980000FF
:101300004D4943204953204150504C59494E4720A4
:10131000000000002497000008B500202849C8708C
:10132000284948702649087100F066F90223002216
:101330001021802002F0FEF82348807B002805D091
:101340000422002121A002F0D7F907E004200023A5
:10135000102268210090214802F0A4F91A48807BED
:10136000002805D0062200211DA002F0C5F907E0E3
:10137000062000231022682100901D4802F092F9F7
:101380001C49C98803221203881A042368220321F6
:1013900002F04CF91749898803221203881A0623A0
:1013A0006822032102F042F912488078002803D015
:1013B000042001F001FE02E0062001F0FDFD08BD61
:1013C000AA01002094000020440100204C6F6361BA
:1013D0006C20202049443A2057000000A4A90000B6
:1013E00043757272656E742049443A2057000000BC
:1013F00074AA00002C00002008B500204349487062
:1014000043488079042803D142480078002801D05D
:10141000012000E000203E4908713F484078002844
:1014200049D00020C87000F0E7F802230022102104
:10143000802002F07FF837482030807B002805D0DC
:101440000422002135A002F057F907E00420002310
:10145000102260210090354802F024F92D482030F8
:10146000807B002805D00622002131A002F044F93B
:1014700007E006200023102260210090304802F08F
:1014800011F92549488804236022194602F0CEF854
:101490002149888806236022042102F0C7F81E48EB
:1014A0000078002803D0042001F086FD2CE00620FF
:1014B00001F082FD28E001201549C870002000F0ED
:1014C0009BF8022300221021802002F033F81148FB
:1014D0002030807B002805D00422002119A002F0D2
:1014E0000BF907E0042000231022802100901A4805
:1014F00002F0D8F8062300221021802002F01AF80A
:101500000349087801F058FD08BD00009400002050
:10151000AA0100202401002034000020546F7461CF
:101520006C20207369676E3A00000000249B000065
:1015300048617665207369676E65643A0000000053
:10154000E49B00005369676E696E206265206261EA
:101550006E6E656400000000A49C000008B50120C8
:101560001C49C87000201C4948701A48807904281A
:1015700003D11A480078002801D0012000E00020A3
:1015800014490871002000F037F8022300221021CE
:10159000802001F0CFFF11482030807B002805D04B
:1015A000042200210EA002F0A7F807E00420002387
:1015B0001022802100900F4802F074F806230022C8
:1015C0001021802001F0B6FF0249087801F0F4FCF8
:1015D00008BD0000AA010020940000202401002082
:1015E00020202020566F74696E672E2E2E2020201A
:1015F00000000000A49D0000002806D0012809D0AA
:10160000022803D003280AD105E000BF0021064AC2
:10161000518004E000BF0F21034A518000BF00BF8A
:1016200001490870704700009400002008B5104878
:101630000088401C80B20E4908800A2817DB002071
:101640000C490090097889020B4A8818002340222F
:10165000802102F027F8092106480078401CFEF797
:1016600083FDC8B20349087000200149088008BD05
:101670009A00002098000020A86F00000EB501F02D
:101680004DFF0020FFF7B8FF21480079002807D060
:101690000020612310220A2100901E4802F002F867
:1016A00000201B4900908978242251431A4A881847
:1016B0006E231022122101F0F5FF1848007801284E
:1016C00008DD00200346102212210090144801F08A
:1016D000E9FF0DE0002011490090097824225143D0
:1016E0000F4A903A881800231022122101F0DAFFE5
:1016F0000C48C08803210903421A0BA101A804F079
:10170000EDFB0022302101A801F0F6FF0EBD000024
:101710002401002010950000A8930000680100201B
:10172000EC9400002C0000205725303364000000AA
:1017300000B589B00220FFF75FFF022300223021AD
:10174000802001F0F7FE124A12A101A804F0C6FBA6
:101750000222002101A801F0CFFF1048807B002861
:1017600005D0062200210EA001F0C6FF07E00620EA
:1017700000231022282100900B4801F093FF06223D
:10178000282106481B3801F0B7FF09B000BD000052
:1017900071010020535349443A257300440100204D
:1017A000564552203A00000044AB000008B5FFF750
:1017B00065FF0948807B002805D00422002107A08E
:1017C00001F09AFF07E004200023102280210090FE
:1017D000074801F067FF08BD44010020436F7265B0
:1017E0002055415254204572726F72210000000052
:1017F000A4A0000010B50C48006B0C4944180C491B
:10180000097889010B4A88184022214603F0A4FB7D
:1018100040200549486306480078401C4107490FAD
:101820000348017010BD000000050640000106409D
:10183000C6030020C6010020014600200A4AD060ED
:10184000104641600120106100BF00BF00BFBFF320
:101850006F8F00BF00BF00BF00BF034800690028B2
:10186000FBD101488068704700C000500146042049
:101870000A4AD060880050600120106100BF00BF9C
:1018800000BFBFF36F8F00BF00BF00BF00BF0348A2
:1018900000690028FBD101488068704700C00050F3
:1018A00060480068032109048843012109044018A5
:1018B0005C49086000205C4908625A4800680321BE
:1018C000090788435749086008460068032109034F
:1018D00088434018534908600120534988615148A2
:1018E000006803218903884340184E49086001209D
:1018F0004D49C8614B4840300068C0218843494980
:10190000403108600846006830218843103045495E
:1019100040310860012044494031886041484030EE
:1019200000680C218843001D3E49403108600120B9
:101930003D49403148603B484030006880088000A5
:10194000401C384940310860012037494031086067
:10195000344800680321090588430121090540181E
:10196000304908602F4840300068032189068843C9
:101970000121890640182B4940310860084600685B
:1019800003210906884301210906401825494031F1
:1019900008602448403800680321890688432149AB
:1019A0004039086008460068032109078843401849
:1019B0001C49403908601B4880300068302188434A
:1019C00018498031086008460068C02188431549DD
:1019D00080310860154840680C21884313494860ED
:1019E000084640684860084640690F210906884358
:1019F0000E4948610846406948610D480068302139
:101A0000884330300A49086001200A498860084844
:101A10000068C0218843C03005490860012005499D
:101A2000C8607047404000504042005040000050A5
:101A300040410050404300501CB5684603F0CEF9C9
:101A4000684600788021084000280FD0684640781A
:101A5000012804D0022803D0032802D000BF00BF11
:101A600000BF002003F04AFB00BF24E06846407836
:101A7000092804D00A280FD00B2816D116E0684692
:101A8000C078032807D10C488069802108430A499F
:101A90008861002048610DE0074880688021084384
:101AA000054988600020486004E000BF002003F082
:101AB00025FB00BF00BF1CBD0005064010B500BFE0
:101AC00006E059201E49086016200860882008603A
:101AD0001B4800680128F4D100BF1A48FEF7A4FC97
:101AE000202200211748FEF701FF0022164917485F
:101AF00003F048FA00201649886109208001154941
:101B00008860082008601120400188610820086171
:101B100041208862102008622220886350200863D8
:101B20004020486303F0A8FC1720012181400A4AA5
:101B3000116000BF00BF00200149086000BF10BD58
:101B4000000100509B3C0040391A0000E86600008C
:101B5000000006400005064000E100E0044604A045
:101B600004F0ACF9204604F0FBFC00BFFEE70000E7
:101B7000496E2048617264204661756C742048612A
:101B80006E646C65720A000038B504460D4619484B
:101B90000078012804D0022815D0032820D111E0B4
:101BA000002014490870002C06D003460246014666
:101BB0000090062000F03EF801220E49562003F066
:101BC000C5FE0EE000BF00200A490870002C06D0B8
:101BD0000346024601460090082000F02BF800E082
:101BE00000BF00BF002D03D00249087801F0E4F9DE
:101BF00038BD0000AA01002070B504460D460C480F
:101C0000007801280CD0012009490870084684702A
:101C100003F050FE01220649891C562003F096FE6F
:101C2000002D03D00249087801F0C6F970BD00000C
:101C3000AA010020FEB505460E4617461C465A214D
:101C400068460171A52141710898001DC1B268461E
:101C50008171AA21C171057246728772FC210091BF
:101C6000072101A804F02EF8002C06D0012004F072
:101C7000A6FB2046089904F025F80121684604F0E7
:101C800021F8FEBD38B504460C4800786946087056
:101C9000002C01D1012100E0002168464170074875
:101CA000817868468170064801786846C1700422D0
:101CB0006946AB2003F04AFE38BD00002401002035
:101CC0006801002010B500200B49487000210A4827
:101CD000203041730621017402214174002007491C
:101CE00048700749887007490871C87006494870EC
:101CF0000121FFF749FF10BD240100203A00002018
:101D000068010020AA01002094000020F0B58DB0E9
:101D1000074638780C907D78BE78FC1C00200B902C
:101D20000A900C98002804D002280AD02E287AD1D4
:101D30006AE0002D02D1FFF7C5FF01E002F0F0FBE1
:101D400080E0002D5FD10120FD4948700321FC484F
:101D50002030C173FFF792FC2078002806D00128BC
:101D600010D0022828D003284BD13AE00021F448B3
:101D7000203001746078F3498871A078C871FFF74A
:101D80007DF93FE00121EE482030017460780002C7
:101D9000A1780843EC494880E078000221790843A3
:101DA000E949888060790870A079E6498871E0790E
:101DB000C871FFF721FB25E00221E14820300174C2
:101DC0006078E2498870A078DE498871E078C8714F
:101DD0002079DE4948706079DB490870FFF7BEFB67
:101DE00010E00321D6482030017460780002A17809
:101DF0000843D7498880002088704870FFF78CFA24
:101E000000E000BF00BF1DE0CD482030007C04286A
:101E100016D0CB484078002806D10120C849487028
:101E2000FFF72CFC04E00CE000210846FFF7ACFEB5
:101E30000421C348203001740321C173FFF7E6F881
:101E400000E000BF00BFBE484078002876D00C9864
:101E5000232874D020DC102872D00EDC0A2841D050
:101E600006DC03286DD005283DD007286AD116E18D
:101E70000E2868D00F28F9D1FEE3192877D006DCA8
:101E8000132875D0142874D01528EFD1AEE21D2880
:101E900070D01E28EAD1F0E331286CD013DC24384E
:101EA0000C284FD243007B449B885B009F444D0528
:101EB0004A0079054A0097014A004A00CF042003EE
:101EC0004A004A00E8013D286FD006DC32286DD078
:101ED00034286CD03C28C9D1F5E33F2868D040288D
:101EE000C4D1F1E300BF002D06D0012D44D0032D55
:101EF00073D0042D3AD140E0924AD1782078FFF790
:101F00007BFE8F482030407C022802D0FEF770FF15
:101F10002CE090484078002828D00120FFF76CFB87
:101F2000022300221021802001F004FB844820308D
:101F3000807B00280CD00422002105E0FEE3FEE3B4
:101F4000B2E377E3FCE381E283A001F0D5FB07E095
:101F500004200023102280210090844801F0A2FB7D
:101F6000062300221021802001F0E4FA95E0E8E346
:101F700089E12BE2E6E345E200BF7648407800289D
:101F800029D00120FFF738FB0223002210218020F6
:101F900001F0D0FA6A482030807B002809D0042262
:101FA000002173A001F0A8FB0BE0F3E34BE3C9E2CF
:101FB000F1E304200023102280210090714801F0F9
:101FC00071FB062300221021802001F0B3FA0321C7
:101FD0005B484030017060E0FFE75A488079042890
:101FE0002DD10320574908705A484078002821D045
:101FF0000020FFF701FB022300221021802001F0C6
:1020000099FA4F482030807B002805D00422002117
:102010005DA001F071FB07E0042000231022802165
:1020200000905E4801F03EFB062300221021802034
:1020300001F080FA4349087800F0BEFF2CE002204E
:102040004049087043484078002821D00020FFF71D
:10205000D3FA022300221021802001F06BFA3848C5
:102060002030807B002805D0042200214CA001F004
:1020700043FB07E0042000231022802100904D48FC
:1020800001F010FB062300221021802001F052FAFB
:102090002C49087800F090FF00BF00BF27E2002D18
:1020A00033D1284AD1782078FFF7A6FD2448203084
:1020B000407C022802D0FEF79BFE8FE02548407846
:1020C000002821D00120FFF797FA022300221021D7
:1020D000802001F02FFA1A482030807B002805D09C
:1020E000042200211CA001F007FB07E004200023CC
:1020F0001022802100901D4801F0D4FA062300220E
:102100001021802001F016FA68E00E48C178002006
:10211000FFF73AFD0F48407800285FD00120FFF715
:102120006BFA022300221021802001F003FA0448F8
:102130002030807B002843D0042200213CE00000B6
:1021400024010020AA010020340000203A000020D1
:102150002C000020940000202020204D49432049DD
:1021600053204F4E20202020000000002495000026
:102170002020204D49432049532046554C4C2020D7
:1021800000000000A4A400004D4943204953204111
:1021900050504C59494E4720000000002497000041
:1021A000204D49432049532057414954494E472027
:1021B0000000000024980000FBA001F09DFA07E059
:1021C00004200023102280210090FC4801F06AFACC
:1021D000062300221021802001F0ACF95EE7F848C8
:1021E000007C00281BD1F7484078002801D101204D
:1021F00000E000204000F4494978002901D1012184
:1022000000E00021C9000843F0490978002901D104
:10221000012100E00021090108430A901DE0EA487D
:102220000078E8494978002901D1012100E0002126
:1022300049000843E4494978002901D1012100E01F
:102240000021C9000843E1490978002901D1012191
:1022500000E00021090108430A90D948203881781C
:1022600068460172DA48017868464172022000909F
:10227000D648427802AB29200A99FFF7DBFC0DE72C
:10228000FFF720FD0AE7002D73D120780002617866
:102290000843CD494880A0780002E1780843CA4944
:1022A0008880C748007C01287BD00121C448017484
:1022B0000020C5490870C3488079042804D1C0486B
:1022C00020380078002801D0012000E00020BD491E
:1022D00008710020BF494870BB484078002832D0C0
:1022E0000020B849C870FFF787F9022300221021A7
:1022F000802001F01FF9B248807B002805D004221D
:102300000021B5A001F0F8F907E004200023102215
:1023100060210090B44801F0C5F9A948807B0028ED
:1023200005D006220021B1A001F0E6F907E0062061
:102330000023102260210090B04801F0B3F906207C
:1023400000F03AFE24E001209E49C8700020FFF70B
:1023500053F9022300221021802001F0EBF8984865
:10236000807B002806D004220021A5A001F0C4F93A
:1023700008E02AE004200023102280210090A548D4
:1023800001F090F9062300221021802001F0D2F8FC
:102390008C480079002804D18A48C1780020FFF7D2
:1023A000F3FB8948407800280FD0874840880423F1
:1023B00060221946019001F039F98348808806238C
:1023C00060220421019001F031F9DAE3002D03D1FC
:1023D00001207D49487002E000207B494870784820
:1023E000007C012801D1FFF707F8CAE3002003466B
:1023F0000246014600901620FFF71CFC012072499E
:102400000870BEE37048407800281ED06E480078FF
:1024100000281AD16C488088401C6B498880084687
:102420004088042360221946019001F0FFF86648B5
:102430008088062360220421019001F0F7F804202F
:1024400000F0BAFD0120604908709AE3002D31D1F7
:102450005B48407B00284AD1012159484173002044
:102460005849C87008715B494870062000F0A4FD07
:10247000022300223021802001F05CF80020FFF7C9
:10248000BBF8022300223021802001F053F84C4891
:10249000807B002805D0042200215FA001F02CF9E8
:1024A00025E0042000231022802100905F4801F0E5
:1024B000F9F81CE0002142484173007C030003F05E
:1024C00021FD06080B04110E051400BFFFF746F8A6
:1024D0000CE0FEF7D3FD09E0FEF78EFF06E0FEF705
:1024E00095FD03E0FEF718FF00E000BF00BF48E3E2
:1024F000280230430B903248007C03280ED0032181
:102500002F4801744A490B988880002048708870D1
:1025100000210846FFF738FBFEF7FEFE444881889D
:102520000B9881420DD042490B98888008468088DC
:1025300003210903401A062368220321019001F0B8
:1025400075F81EE3280230430B900120384988704B
:102550000B98C88008464078401C48700846C088E0
:10256000011268460172324881796846417202223E
:1025700002A9572003F0EAF92D48C0880321090376
:10258000401A042368220321019001F04FF82848E3
:10259000C08803210903401A002338220321019037
:1025A00001F044F8EDE200002020204D494320498D
:1025B00053204F46462020200000000024960000B3
:1025C00044010020AA010020340000203A0000202D
:1025D0006801002094000020546F74616C20207307
:1025E00069676E3A00000000249B00004861766530
:1025F000207369676E65643A00000000E49B000088
:102600005369676E696E2062652062616E6E6564F3
:1026100000000000A49C000020204669726520573D
:1026200061726E696E67212000000000A4A50000A1
:102630002C0000200021FA480174FA488571C67107
:10264000FEF71CFD9DE2F7488571C671C178002038
:10265000FFF79AFAF4484078002823D00120FEF7CB
:10266000CBFF022300221021802000F063FFEC4802
:10267000807B002808D001E015E037E1042200212A
:10268000EA4801F039F807E00420002310228021F5
:102690000090E74801F006F8062300221021802070
:1026A00000F048FF6DE200BF002D20D10C980F28EC
:1026B0000BD10121DA4841740020D9492039C8637F
:1026C000FEF796FB9CE000E136E2D5482038007822
:1026D00000280BD10021D248417420780002617893
:1026E0000843CF492039C863FEF782FB88E0022106
:1026F000CB484174CC484078002870D0C948007855
:10270000002806D0012805D0022830D0032876D131
:1027100051E000BF0020FEF76FFF022300221021CE
:10272000802000F007FFBE48807B002810D00422E4
:102730000021C0A000F0E0FF062204E022E2FEE05B
:102740001EE25EE079E00021BFA000F0D5FF0DE0C1
:1027500004200023102280210090C04800F0A2FF36
:10276000062300221021802000F0E4FE47E0002034
:10277000FEF742FF022300221021802000F0DAFE43
:10278000A748807B002807D004220021B44800F02D
:10279000B3FF09E09EE09CE1042000231022802189
:1027A0000090B04800F07EFF062300221021802018
:1027B00000F0C0FE23E00020FEF71EFF02230022EF
:1027C0001021802000F0B6FE9548807B002807D0BD
:1027D00004220021A248183800F08EFF08E00FE024
:1027E000042000231022802100909F4800F05AFF0F
:1027F000062300221021802000F09CFE00BF00BFB5
:10280000BFE1002D08D102218548017400209749BD
:1028100048700846867004E0012D02D105218048E9
:102820000174FEF79BFE7F480079002804D17D48A3
:10283000C1780020FFF7A8F9A3E1002D03D1012002
:102840008A49087002E000208849087099E17648BA
:102850004078002838D0012D1BD10320FEF7CCFE94
:10286000022300221021802000F064FE6C48807B4F
:10287000002805D0042200217DA000F03DFF23E0C8
:1028800004200023202280210090824800F00AFFCB
:102890001AE00320FEF7B0FE022300221021802060
:1028A00000F048FE5E48807B002805D0042200210D
:1028B00079A000F021FF07E00420002320228021DE
:1028C00000907E4800F0EEFE5BE1680082305549E2
:1028D000088156E1524820380078002805D164204C
:1028E00068435049488102F0E5FF4AE1002D01D0DC
:1028F000012D23D1002D03D101214948817302E02C
:102900000021474881734648007C030003F0FAFA2F
:1029100006080B04110E051400BFFEF71FFE0CE0A5
:10292000FEF7ACFB09E0FEF767FD06E0FEF76EFB85
:1029300003E0FEF7F1FC00E000BF00BF21E13948F1
:102940000574284603F060FA1BE1002D06D0012D26
:102950000BD0022D13D0032D20D115E03148867302
:102960000146887B01F00CFB19E0002000902D4807
:10297000827B002319462520FFF75CF90FE02948E8
:10298000807B2849C8730AE00420264988730846DA
:10299000807BC873887B01F0F3FA00E000BF00BFC2
:1029A000EFE0002D04D0012D11D0022D37D187E0AA
:1029B0003011401EC0B20A9022781A4811300A998C
:1029C00042540A9A815C104603F00EFA7FE010210F
:1029D000684601721348417C684641722021817229
:1029E0001048817C6846C172302101730D48C17C5A
:1029F00068464173402181730A48017D6846C1736E
:102A0000502101740748417D684641740A2002AB99
:102A10000022114600902720FFF70CF957E055E0FF
:102A200044010020AA01002094000020A8250000F5
:102A30002496000020202020576972656C6573730E
:102A40002020202000000000202020436F6E6665BB
:102A500072656E63652020200000000094AB0000CA
:102A6000A021000024980000249700003A000020D4
:102A7000506C7A20676F20746F2074686520646FD3
:102A80006F72206F6620626F617264726F6F6D216A
:102A90000000000094AC0000506C65617365206715
:102AA0006F20746F2074686520636F6E736F6C6540
:102AB00021202020202020200000000094AE0000D3
:102AC00005223149481DFDF763FB00E000BF00BF50
:102AD00057E004202C49113988730846807BC8735D
:102AE000887B01F04DFA2C2205212748FDF762FB77
:102AF00005222549481DFDF74BFB23481138417C31
:102B0000002003F071F920481138817C012003F086
:102B10006BF91D481138C17C022003F065F91A4891
:102B20001138017D032003F05FF917481138417D0A
:102B3000042003F059F924E01349113909890846A2
:102B40008238C10F0918C905090E6A4611720F486B
:102B50000078002808D10C49113948896421FDF713
:102B600003FB6946487202E0002069464872022071
:102B700002AB0022114600904120FFF75BF800E015
:102B800000BF00BF0DB0F0BDBB010020240100203C
:102B900070B505460E461446284600F04CF82978D4
:102BA000284600F01BF8284600F075F87000221245
:102BB0001043C1B2284600F011F8284600F06BF827
:102BC000E1B2284600F00AF8284600F064F82846EA
:102BD00000F049F8032003F0F2FB70BD70B5044625
:102BE0000D4601202169884700206168884700263A
:102BF0001EE080202840C011002803D00120A168D9
:102C0000884702E00020A16888476806050E022078
:102C100003F0E0FB012061688847022003F0DAFB43
:102C2000002061688847022003F0D4FB701CC6B204
:102C3000082EDEDB70BD10B50446012021698847EF
:102C40000120A1688847012061688847042003F0BB
:102C5000C1FB0020A1688847042003F0BBFB0020D3
:102C60006168884710BD10B5044601202169884776
:102C70000020616888470020A1688847042003F08D
:102C8000A9FB0120616888470120A16888470420CA
:102C900003F0A0FB10BD70B504460025002021699B
:102CA00088470120A1688847012003F093FB012099
:102CB00061688847012003F08DFB08E0681CC5B2FD
:102CC000FA2D04DD2046FFF7CEFF012070BDE0683D
:102CD00080470028F2D1616888470020F6E70000AD
:102CE00008B503F085FB65488078012802D00228EA
:102CF0007BD1B1E0614880886149884208D15F4852
:102D00000078002802D101F00BFC00E000BFA2E037
:102D10005A4880881E28FAD158480078002876D072
:102D2000012802D0022871D172E05648007C0128A7
:102D30000CD003282BD106200090534802798088BC
:102D40000112524B2D20FEF775FF5EE050480078CF
:102D500000281BD14E484078002817D001204C494C
:102D6000087008468088401C8880488804236022B8
:102D7000194600F05BFC464988880623602204213E
:102D800000F054FC042000F017F93EE000BF414879
:102D90000079002838D03F480078002809D10090F9
:102DA00038482038017800231A460420FEF742FFF5
:102DB0002AE03848C1780120FEF7E6FE3648407820
:102DC000002821D00120FEF717FC02230022102149
:102DD000802000F0AFFB2B48807B002806D0042227
:102DE00000212EA000F088FC08E044E0042000232D
:102DF0001022802100902E4800F054FC062300226F
:102E00001021802000F096FB00BF00BF22E013E0FD
:102E10001C482038007800280DD01E480079002872
:102E200009D00020234988600346024601460090ED
:102E30000920FEF7FFFE0DE017484078002808D073
:102E400015480078022802D0FEF772FC01E0FEF778
:102E500015F900BF00BF0FE0084880881E2809D17F
:102E600006484078022803D101201249886000E01A
:102E700000BF00BF00E000BF00BF08BD720000201F
:102E8000B80B0000440100202C0000206B01002042
:102E900034000020AA010020940000202020204DB2
:102EA0004943204953204F4646202020000000007F
:102EB00024960000404300503A48407B00281BD035
:102EC00038482038C08E002807D036482038C08EB9
:102ED000401E34492039C88663E03348C068C04387
:102EE0003149C8603148C069C0433049C8611920C0
:102EF0002C492039C88654E02A48007C012823D177
:102F00002B48007800284CD129484078002848D028
:102F100024482038C08E002807D022482038C08E90
:102F2000401E20492039C8863BE01F48C068C04386
:102F30001D49C8601D48C069C0431C49C8611920AB
:102F400018492039C8862CE01648007C032828D16F
:102F500018484078002820D012482038C08E002819
:102F60000CD010482038C08E401E0E492039C8862B
:102F700001200D49C8600D49C86112E00D48407834
:102F8000401E0C49487000200749C8600749C861C5
:102F9000142004492039C88603E01420014920394F
:102FA000C886704744010020404300504042005012
:102FB000340000202C00002000B50021144AD186E6
:102FC000030002F09FFF07060F19180E0D052200DF
:102FD00000BF01210F4AD16191610F4AD16014E015
:102FE00000BF00BF00210B4AD16101219161002186
:102FF000094AD16009E000BF0121064AD1610021E0
:1030000091610121044AD16000BF00BF00BD0000F2
:1030100024010020404200504043005010B50246B9
:10302000012002E00346534318460B464C1EE1B212
:10303000002BF7D110BD000038B57A48007803287E
:1030400039D1794800880F2805DA77480088401C74
:1030500075490880E4E07348C1780120FEF794FDCB
:10306000724840780028F5D00020FEF7C5FA022308
:1030700000221021802000F05DFA6D48807B00283E
:103080000AD0042200216BA000F036FB06220021AA
:103090006DA000F031FBC3E004200023102280214A
:1030A00000906E4800F0FEFA0623002210218020D6
:1030B00000F040FAB4E000205B49088059480078ED
:1030C0000128C7D15A48407C00283ED0012802D0B0
:1030D0000228FFD1A3E056482038806B401C544999
:1030E000203988635148407800282DD04F48007817
:1030F000002829D1886BE1210901FDF71FF804465A
:1031000004234022022100F091FA49492039886BBA
:10311000E1210901FDF712F80D463C212846FDF793
:103120000DF8044604235822022100F07FFA40499A
:103130002039886B3C21FDF701F80C4604237022EE
:103140000221204600F072FA69E039482038806B8D
:10315000012839D936482038806B401E344920393F
:10316000886332484078002858D0304800780028DA
:1031700054D1886BE1210901FCF7E0FF04460423E8
:103180004022022100F052FA29492039886BE121BE
:103190000901FCF7D3FF0D463C212846FCF7CEFF82
:1031A000044604235822022100F040FA2049203925
:1031B000886B3C21FCF7C2FF0C46042370220221DD
:1031C000204600F033FA29E01648C1780120FEF7C6
:1031D000DBFC16484078002820D00120FEF70CFACE
:1031E000022300221021802000F0A4F91048807BE7
:1031F000002805D00422002119A000F07DFA07E084
:10320000042000231022802100901A4800F04AFA7E
:10321000062300221021802000F08CF900BF00BF9F
:1032200038BD0000AA0100203E00002094000020CC
:103230004401002020202020576972656C6573735B
:103240002020202000000000202020436F6E6665B3
:1032500072656E63652020200000000094AB0000C2
:103260002020204D4943204953204F46462020200E
:1032700000000000249600007CB50446002550E0C4
:10328000207803F0C1F969460870607803F0BCF952
:10329000014668464170A07803F0B6F901466846D9
:1032A0008170E07803F0B0F901466846C17001789A
:1032B0004078484061784840A1784840E1784840EB
:1032C00069460871207849784840694689784840BD
:1032D000A1784840E1784840694648712078617893
:1032E00048406946897848406946C9784840E1784D
:1032F000484069468871087821784840617848409C
:10330000A17848406946C97848406946C87108793B
:103310002070487960708879A070C879E0706D1C61
:10332000241D042DACDB7CBDC206D20E01219140D0
:10333000014A11607047000000E100E010B500286C
:1033400019DA1A4A03071B0F083B9B089B00D25847
:103350008307DC0EFF23A3409A438B071B0E8407D1
:10336000E40EA3401A43114B0407240F083CA408A1
:10337000A4001A5118E00E4A03231B02D218830836
:103380009B00D2588307DC0EFF23A3409A438B0790
:103390001B0E8407E40EA3401A43054B03242402AA
:1033A0001B198408A4001A5110BD00001CED00E098
:1033B00000E100E010B5002819DA1A4A03071B0FD4
:1033C000083B9B089B00D2588307DC0EFF23A340D9
:1033D0009A438B071B0E8407E40EA3401A43114B3C
:1033E0000407240F083CA408A4001A5118E00E4A50
:1033F00003231B02D21883089B00D2588307DC0EDC
:10340000FF23A3409A438B071B0E8407E40EA340BF
:103410001A43054B032424021B198408A4001A51E3
:1034200010BD00001CED00E000E100E010B57F21C0
:10343000002000F058F80721002000F061F8002477
:1034400004E0002000F028F8601C84B20120800213
:103450008442F6DB10BD000000BF0C490968012260
:10346000D2051140C90D0029F7D1094A5163094914
:103470000862096801221143064A116000BF05492C
:103480000968C907C90F0029F9D1704700800050A9
:10349000804200500040034000BF0D4909680122EE
:1034A000D2051140C90D0029F7D10121094A516304
:1034B00009490862096801221143074A116000BFE7
:1034C00005490968C907C90F0029F9D170470000EB
:1034D00000800050804200500040034010B5AE20F4
:1034E000FFF7BAFF10BD70B505460C462120FFF767
:1034F000B3FF2846FFF7B0FF2046FFF7ADFF70BDD2
:1035000070B505460C462220FFF7A6FF2846FFF7B8
:10351000A3FF2046FFF7A0FF70BD000010B50121FA
:1035200089020348FCF74DFE00F004F910BD0000CD
:1035300004070020FFB582B00C4600200190E41083
:10354000002514E0D80180180090002608E0002132
:103550000098471CBFB20097084F3954701C86B2C0
:1035600002988642F3DB581CC3B2681C85B2A542A0
:10357000E8DB00F0DFF806B0F0BD00000407002033
:1035800010B51048007800281AD00F4800680121B3
:10359000C9050840C00D002812D101200B4948631D
:1035A0000848083008494860002000F031FB08480E
:1035B000806B012108430649886300200149087097
:1035C00010BD0000FC06002000800050804200502A
:1035D00000400340FCB503460C4618462038000561
:1035E000000C0190002518E0D00100190090002681
:1035F0000DE00198411C89B201910A49095C0098CB
:10360000471CBFB20097084F3954701C86B2082E71
:10361000EFDB501CC2B2681C85B2022DE4DB00F067
:1036200089F8FCBDB869000004070020FFB583B02D
:103630000C4615460020029000262FE0A01B401EDD
:10364000C1B20A20FFF7EAFC014600900398FCF79C
:1036500075FD0A210190FCF771FD0F4602980028C4
:103660000FD1601EB0420CDD002F08D1294630205A
:10367000069AFFF7AFFF28460830C5B20CE00120DC
:10368000029039463031C8B22946069AFFF7A2FFA8
:1036900028460830C5B200BF701CC6B2A642CDDBBA
:1036A00007B0F0BDFFB582B00B9C00200190D21096
:1036B000002519E0E001C018009000260DE00198F7
:1036C000411C89B201910299095C0098471CBFB264
:1036D0000097084F3954701C86B203988642EEDB7F
:1036E000601CC4B2681C85B29542E3DB00F022F88E
:1036F00006B0F0BD04070020F0B504460D4616469E
:10370000002712E039467A1CD7B2605C324629465F
:10371000FFF760FF28460830C5B27F2D05DD002584
:10372000B01CC6B2072E00DD02E0E05D0028E9D142
:1037300000BFF0BD0120014908707047FC06002061
:1037400010B500BF0D4800680121C9050840C00D33
:103750000028F7D101200A4948630A480749486010
:10376000002000F055FA0848806B01210843064903
:103770008863002003490839087010BD008000509C
:1037800080420050040700200040034010B5AE20E6
:10379000FFF762FE2020FFF75FFE4020FFF75CFE90
:1037A0008120FFF759FEB020FFF756FEA120FFF75A
:1037B00053FEA420FFF750FEA620FFF74DFEA820E1
:1037C000FFF74AFE3F20FFF747FEC820FFF744FE01
:1037D000D320FFF741FE0020FFF73EFED520FFF784
:1037E0003BFE9020FFF738FED920FFF735FE222060
:1037F000FFF732FEDA20FFF72FFE1220FFF72CFE34
:10380000DB20FFF729FE3020FFF726FE8D20FFF793
:1038100023FE9520FFF720FEFFF708FEAF20FFF7FD
:103820001BFE10BD08B500BF06E0592040490860E6
:1038300016200860882008603D4800680128F4D1FF
:1038400000BF002220213B48FDF750F83948FCF723
:10385000EBFD05200007806B0B2109028843052141
:10386000090788630846806B0B210902084305217C
:10387000090788632E48C03840690121C90588437B
:103880002B49C03948610846406948612A4800F020
:10389000BBFA2A4808232A4A00210090294800F050
:1038A000CFF900220121274800F0BEF900BF002017
:1038B0001F49086000BF0120234988620020224977
:1038C00040310863642002F07AFD01201E49403136
:1038D0000863642002F073FDFFF758FF0120FCF736
:1038E000A3FD022000F090FA012000F043F801222D
:1038F00092025102002000F059F88020114B203331
:10390000002212490090104600F03EF800231A46AB
:103910000121184600F06EF80221002000F01AF88C
:103920001A20012181400A4A116000BF08BD000031
:10393000000100500D0050520D00000480969800C8
:1039400004080000004003404042005004070020EB
:1039500000E100E010B50302024C1A19136A0B4390
:10396000136210BD00800050022001494862704778
:10397000008000500349096802021143014A1160A6
:1039800070470000008F0050F0B5059C0602064FFE
:10399000F5196960AB602E68F027BE4317462743D0
:1039A0003E432E60F0BD00000080005030B503465D
:1039B0001C020F4D601904680325ED04AC430C4351
:1039C0000460002908D00124E4040C1B07D0012561
:1039D000ED04641B08D104E09400C46005E0C260FB
:1039E00003E05400C46000E000BF00BF30BD000031
:1039F00000800050F0B50C4600210302824E9D1954
:103A0000102C04D92B680C26B3432B600CE0052C3A
:103A100005D92B680C26B3431B1D2B6004E02B68D3
:103A20000C26B34308332B60230002F06BFA110A13
:103A3000131D27303A434B555F677179838D97A1EA
:103A4000AB00724B5B68F026B343060133436F4E05
:103A50007360D6E06D4B5B680F263603B3430603F5
:103A600033436A4E7360CCE0684B5B680F263605C3
:103A7000B34306053343654E7360C2E0634B9B68F6
:103A8000F026B34306013343604EB360B9E05F4BA9
:103A90009B680F263603B343060333435B4EB36084
:103AA000AFE05A4B1B69F026B34306013343574E30
:103AB0003361A6E0554B5B681B091B010343534E62
:103AC00073609EE0514B5B680F263602B3430602DB
:103AD00033434E4E736094E04C4B5B680F263604C4
:103AE000B34306043343494E73608AE0474B9B68F7
:103AF0001B091B010343454EB36082E0434B9B68A7
:103B00000F263602B34306023343404EB36078E0DB
:103B10003E4B1B691B091B0103433C4E336170E0A4
:103B20003A4B9B680F263606B34306063343374E9F
:103B3000B36066E0354B1B690F263602B3430602BD
:103B40003343324E33615CE0304B1B690F26360342
:103B5000B343060333432D4E336152E02B4B1B69B5
:103B60000F263604B34306043343284E336148E03E
:103B7000264B1B690F263605B34306053343234EF8
:103B800033613EE0002139E0204B5B688F000F2657
:103B9000BE4033408E000746B740BB4207D11B4BA7
:103BA0005B688F000F26BE403343184E7360174B7F
:103BB0009B688F000F26BE4033408E000746B740FB
:103BC000BB4207D1114B9B688F000F26BE40334389
:103BD0000E4EB3600D4B1B698F000F26BE40334065
:103BE0008E000746B740BB4207D1084B1B698F00C8
:103BF0000F26BE403343054E3361491C0829C3D309
:103C000000BF00BFF0BD000000800050008F0050DA
:103C10000202034BD1180A68024B1A430A6070472C
:103C2000008000500100800030B583681C09240129
:103C30000B46134308252B431C43846030BD000012
:103C4000FFB583B004460C9F002002900698202800
:103C500001D1002006900698C000049908430599F8
:103C600008432060E06B0121C9070843E063FCF7CB
:103C7000B7FC0646049800287ED1A0605F488442C5
:103C80000BD15F48406910210840102801D10296ED
:103C90001DE0FCF76DFD029019E05A4884420BD1FB
:103CA0005748406920210840202801D102960EE0A3
:103CB000FCF75EFD02900AE051484069402108404F
:103CC000402801D1029602E0FCF752FD0290B74273
:103CD00021D34A48844207D149484069102188438A
:103CE00010304749486111E04648844207D14448B2
:103CF00040692021884320304149486106E040481E
:103D000040694021884340303D494861002060605F
:103D1000304607B0F0BD0298874203D300206060B0
:103D20000298F6E7002F0BD1E06B40004008E063FB
:103D30006068000A0002FF3060600298400AE8E70D
:103D40000A220299514308463946FCF7F7F9401D0B
:103D50000A210190FCF7F2F9451EFF2D20D9E06BF6
:103D600040004008E06379000A23029A5A43104653
:103D7000FCF7E4F9401D00E01CE00A210190FCF78B
:103D8000DDF9451EFF2D00D9FF256068000A0002FD
:103D900028436060681C41000298FCF7CFF9B8E73F
:103DA0006068000A000228436060691C0298FCF702
:103DB000C5F9AEE71020A0601048844207D1104832
:103DC00040691021884310300D49486111E00D48C9
:103DD000844207D10A48406920218843203008499D
:103DE000486106E006484069402188434030044964
:103DF00048610020606030468BE70000000003400F
:103E00000002005000400340010E052212078918ED
:103E10008968012282401143020E05231B07D21834
:103E20009160010E1A4689188A68012181408A43EF
:103E3000010EC9188A60704706E0592005490860DC
:103E40001620086088200860024800680128F4D124
:103E50007047000000010050FFB583B00F461646C2
:103E6000002503E00398405D78556D1CB000A84222
:103E7000F8DC354658E0002406E0681E8000001992
:103E8000385C02A90855641C042CF6DB3146284630
:103E9000FCF76AF9002924D16846007A0190684647
:103EA000417A0172817A4172C17A817269460198C0
:103EB000C872002406E002A8005D1F49085C02A940
:103EC0000855641C042CF6DB31462846FCF74CF9F7
:103ED000401E1A49085C6946097A484069460872DA
:103EE00012E0062E10DD31462846FCF73DF9042984
:103EF0000AD1002406E002A8005D0F49085C02A96F
:103F00000855641C042CF6DB00240AE0A81B800082
:103F10000019385C02A9095D4840A90009197854C4
:103F2000641C042CF2DB6D1C0698401C8000A84227
:103F3000A1DC07B0F0BD0000A4670000A469000088
:103F400000B50346184600F001F800BD00BF0B495C
:103F500089690122D20511400029F8D1074908607A
:103F60000A280AD100BF054989690122D2051140FA
:103F70000029F8D10D21014A116070470000054069
:103F800010B50446092C04DA61001831C8B201F0FA
:103F90004FFF10BD417842794270427A4271427BB4
:103FA000427241738178827A827081728179827BD8
:103FB00082718173C17BC27AC273C279C272C278C4
:103FC000C271C170704700000146002004E00A5C25
:103FD000034B9A5C0A54401C1028F8DB7047000021
:103FE000A46700000B214143094A516100219161FE
:103FF0001146096901221143054A116100BF0449B4
:1040000009690122120411400029F8D0704700000C
:1040100000E000E010B500BF06E059202E4908601E
:1040200016200860882008602B4800680128F4D119
:1040300000BF2A48FCF7F8F9032252040C21274854
:10404000FCF754FC264840683321090408432449FE
:10405000486005200007C06B33218843052109070C
:10406000C8630846C06B3321084305210907C863AC
:104070001948C03840693321090488431649C039BA
:104080004861084640693321090408431249C03990
:10409000486100BF00201049086000BF1148006A55
:1040A0000C21884308300F4908620846006A032142
:1040B00008430C4908620846406A3321084309490D
:1040C0004862012008631D2001218140064A1160D9
:1040D00000BFFCF739F910BD000100501CFE23564B
:1040E000C040005000000E4000E100E010B500BFED
:1040F00006E05920134908601620086088200860EF
:10410000104800680128F4D100BF0420FCF760FAD1
:104110001020FCF74DFC00210720FCF7B7FB0A48F4
:10412000FCF766FB3820FCF739FC084800690421DD
:1041300088430649086100BF00200249086000BFAB
:1041400010BD00000001005000A24A0400E000E0A1
:1041500010B54048C07B030001F0D4FE07495E065D
:1041600005727207720000BF00BF3B48407800280C
:104170003CD0384820384078002816D035482038C0
:10418000408E3649884208DBFDF79CFD002031490E
:1041900020394886FCF7F6FD28E02E482038408E6E
:1041A000401C2C492039488620E02A482038808E3F
:1041B000962814DB2848007800280BDDFCF7E2FD88
:1041C0000120FDF75FFD2348C07B032802D00621B4
:1041D0002048C17300201F492039888606E01D4809
:1041E0002038808E401C1B492039888629E01948D8
:1041F0002038808EFF21F531884205DB04211548E7
:10420000C173FDF7D3FA06E012482038808E401CB7
:1042100010492039888614E00E482038808E1049D5
:10422000884205DB05210B48C173FCF775FD06E0EC
:1042300008482038808E401C06492039888600E0D6
:1042400000BF00BF0348C07B032801DAFDF7EEF989
:1042500010BD00004401002068010020701700001C
:10426000DC05000070B5FCF7C3F914490860144878
:10427000006945076D0F022D02D10846046808E069
:10428000012D03D10D480068440802E0A8000D4943
:104290000C580B4880690007000F461C3146204629
:1042A000FBF74CFF084908600849074800684A10B6
:1042B0008018FBF743FF0649086070BD0800002026
:1042C000000200500C0000200000002040420F00BF
:1042D0000400002010B50D215548FCF769FC88202A
:1042E000544988700120C871062153480174022185
:1042F00041740021C17351A11B3801F0EFFD4C48FE
:1043000000685149884222D050485149C880012054
:10431000484948704F4948704F4908704F484549CF
:104320004881FA2008810420C873002008742C22D8
:10433000052140481630FBF73DFF00213E488173C0
:1043400000F090F80D213A48FCF786FC55E038481B
:1043500080883F49C8803648C0680221084040082C
:104360003C4948703248C0680421084080083A49F6
:1043700008702F48007BC007C00F2E4948702C4999
:1043800088682D49173900F0BDFA294908692A497A
:10439000C91E00F0B7FA264948692749491C00F0B0
:1043A000B1FA234988692449491D00F0ABFA204934
:1043B000C8692149093100F0A5FA1D48006A000CBE
:1043C0001C4948811A48008C08811948406A00023B
:1043D000000EC8731648808C08741549886A154900
:1043E000163100F08FFA1248808DC1B211488176E3
:1043F0000F48008EC1B2104881731948806B0028A5
:1044000001D1012000E000200B4920390870084646
:104410000078002802D00020064948810548C07B6A
:104420000449887305221631481FFBF7B1FE10BD01
:10443000F0000020AA01002044010020322E332683
:10444000782E78202020200016101820013000003F
:104450002C000020340000203A000020B80B00009F
:104460000042005010B52648264908602648C088FA
:104470004860264800F050FA224988602448407875
:1044800024494978490008432349097889000843A9
:104490001C49C8601D48143000F03EFA19490861F3
:1044A0001A48183000F038FA1649486117481C308D
:1044B00000F032FA134988611448203000F02CFAD9
:1044C0001049C86111481730807B08631048408943
:1044D00000040F49098908430A4908620C48C07B57
:1044E00000040B49097C0843064948620848163015
:1044F00000F012FA034988620548807EC86210BD48
:1045000016101820F00000202C0000202D010020A3
:10451000AA010020340000203A000020704700006B
:10452000FFF7A0FF0D210C48FCF796FB01210020AE
:10453000FDF72AFB09484078002805D00020FDF748
:10454000A1FB322001F03BFF002005498860086094
:10455000FEF7C4FF00BFFEE7F000002024010020AA
:10456000804200507CB59748007806287ED1002014
:104570009449087006219348801CFBF7BDFE054650
:1045800091488078019001A92846FBF735FF8D48B6
:10459000408AFF214131884201DB012000E00020F8
:1045A00004468948807869460979884234D068464B
:1045B00000798549887008462030C07B02280BDDD1
:1045C00000200090897824225143804A88186E2365
:1045D00010221221FFF766F868460079012801DCF5
:1045E000012100E0002101917748C17868460079F7
:1045F000814211D0684600797349C87008464078F6
:10460000002809D00020009071480278084681787F
:1046100000233020FDF70EFB6B480079A04218D034
:1046200069482030C07B022813DD67480471007997
:10463000002808D00020612310220A21009065483C
:10464000FFF730F805E00023612210210A20FEF771
:1046500071FF5D488078002824D1FCF7CDFF02234C
:10466000002230218020FEF765FF00E01AE0564866
:104670002030807B002805D00422002156A0FFF7BF
:104680003BF807E0042000231022802100905748C7
:10469000FFF708F8FFF754F87D20000101F08FFEC6
:1046A000FFF73EFF47484078012873D15048008803
:1046B000002804D04E480088401E4D4908804D48CF
:1046C000007900285CD04B488079032858D13D48B8
:1046D000C08948490989884215DB46480078002886
:1046E0000ED14348008800280AD10090364801784E
:1046F00000231A460420FDF79DFA96203C490880C5
:1047000001F0D8F83CE03B484089002838D03948CF
:104710000078012834D137488089002805D03548F1
:104720008089401E334988812AE03248C1780120BF
:10473000FDF72AFA30484078002821D00120FCF704
:104740005BFF0223002210218020FEF7F3FE1E48AB
:104750002030807B002805D00422002127A0FEF70E
:10476000CBFF07E00420002310228021009028487E
:10477000FEF798FF0623002210218020FEF7DAFEC4
:1047800024480088002806D022480088401E21497D
:1047900008800CE015E00B48008A1F49884206DBC0
:1047A00001F0A8FA01F072FB64201A490880002089
:1047B000044948701948006A0121C9020843174991
:1047C00008627CBD9601002024010020A89300000F
:1047D00068010020109500004261747465727920B0
:1047E000546F6F204C6F772100000000A4A70000D9
:1047F0005A000020AA010020940000202020204D13
:104800004943204953204F46462020200000000005
:104810002496000058000020EA03000000000E402B
:1048200010B500BF06E0592018490860162008603E
:1048300088200860154800680128F4D100BF14489A
:104840004069072109020843114948610846806808
:10485000042108430E49886000200E4908600320A7
:104860008860642048600C48086002210820FEF738
:1048700065FD082001218140084A116000BF00BF8A
:1048800000200249086000BF10BD00000001005078
:1048900000020050000001401500006800E100E047
:1048A00012480088002804D010480088401E0F4994
:1048B00008800F480088002804D00D480088401E5A
:1048C0000B4908800B480088002805D0094800885B
:1048D000401E0849088005E0074806490880012075
:1048E0000649087001200649886070475E00002074
:1048F00060000020620000201027000064000020FB
:1049000000000140020E0A700202120E4A700204F8
:10491000120E8A70C870704701460A7812064B78EA
:104920001B041A438B781B021A43CB781A43104698
:104930007047000030B5FF203349CA69411C11405F
:1049400000295FD058E030490968C8B22F49497C36
:10495000002906D001290AD0022912D003294AD100
:1049600025E05A2802D10121284B597443E0A5289B
:1049700003D10221254B597402E00021234B5974C5
:1049800039E0012801DB322803DB00211F4B597479
:104990000CE01E49897C332359431D4BC918203133
:1049A00088740021194B19740321597423E01749A5
:1049B0000B7C897C33246143154C09192031897C97
:1049C0008B420CDA114B197C4B1C104C2374234680
:1049D0009B7C332463430E4C1B1958540AE000217E
:1049E0000A4B5974FC2805D11946897C491C0907D2
:1049F000090F997400BF00BF0349C969C907C90FEE
:104A00000029A0D130BD000000001540E8060020BC
:104A1000C803002070B504460D46606828436060F6
:104A20000548844203D10C20FEF77EFC02E00D20F5
:104A3000FEF77AFC70BD000000000540F0B587B0BD
:104A400004460D46274801460EC9C06803AE0EC68F
:104A5000069000200290244840690321090608407E
:104A6000060E214880690F2109020840070A00202C
:104A700020630320E060A0681C490840A060012E6C
:104A800004D1FBF735FEB10003AA5050002D26D00B
:104A9000B10003AA5058791CFBF750FB6908401875
:104AA00029460190FBF74AFB801E029010490298AC
:104AB00088420FD9B10003AA5058791CFBF73EFB7E
:104AC000E900401829460190FBF738FB0009801ED9
:104AD000606204E00321090702980843606207B09E
:104AE000F0BD0000A0B00000000200500FFFF0FF7A
:104AF000FFFF000010B53248006800283FD0304862
:104B000000683049096888421CD92F4909682F4A32
:104B100088182C490A682E49096800F028FA2948A3
:104B20000068294948602A480068264909684018F1
:104B3000274908602248006822490968401A20492C
:104B400008603BE020490968204A88181C490A6827
:104B50001F49096800F00BFA194800681A494860B3
:104B60001748006817490968884202D1012019498D
:104B70000870002016490860114908601EE01648B8
:104B80000078002811D11448407805280DD1134829
:104B9000806813490968884207D010488068002857
:104BA00003D10F4800680D4988600A480078002842
:104BB00004D00020044948600649087010BD000078
:104BC000B4000020CC000020000506400001064093
:104BD000B0000020EC000020A400002000000640EF
:104BE000C400002010B512480068124909688842C4
:104BF0001DD2114844690069104A811822461048A4
:104C0000006800F0B4F90E48006800190C4908600B
:104C10000748006800190649086008460068054909
:104C20000968884203D2074800680349486110BDFB
:104C3000BC000020C0000020000506400001064026
:104C4000B8000020CC00002070B500246048C47972
:104C50002402807904195E48C078032873D004DCEC
:104C6000012807D002286DD115E021282ED0222856
:104C7000F9D144E0122C01D2204600E01220044673
:104C8000544909680868214600F0A0F90021084647
:104C900000F0E0F999E04F4800684068C5784D4859
:104CA00000684068807829024518AC4201D220464D
:104CB00000E028460446474909684868214600F054
:104CC00085F90021084600F0C5F97EE0092C01D2E3
:104CD000204600E0092004463E48006840693C49FF
:104CE0000979890045583B490968496848192146AE
:104CF00000F06CF90021084600F0ACF965E0354899
:104D0000006800693249097989004058A04201D9F8
:104D1000204606E02F48006800692D49097989007E
:104D2000405804462B490968C968294A12799200FB
:104D30008858214600F04AF90021084600F08AF917
:104D400043E000E034E022488078042823DA214858
:104D5000006880681E498978890040580078A04220
:104D600001D9204607E01B48006880681849897807
:104D70008900405800780446164909688968144A31
:104D8000927892008858214600F020F900210846C8
:104D900000F060F919E01048C068022108430E498C
:104DA000C8600846C069022108430B49C8610CE08D
:104DB0000948C068022108430749C8600846C0691D
:104DC000022108430449C86100BF00BF70BD000054
:104DD000A4000020D40000200005064010B50446C1
:104DE00008220249204600F0C2F810BDA4000020AD
:104DF00070B557484468006905072D0F042020400E
:104E0000002815D004205249486008464069C00770
:104E1000C00F002806D008460069902108434C497D
:104E2000086105E04A4800698021884348490861D3
:104E3000E007C00F002821D00120454948602840E4
:104E4000002807D0084600699021084340490861BE
:104E500000F046FB02202840002805D03C480069AD
:104E6000102188433A49086104202840002805D0D1
:104E700037480069902108433549086102202040E5
:104E8000002863D0E00FC007002811D00120C00720
:104E90002F4948602F48C068012108432D49C86048
:104EA0000846C069012108432A49C86100F0E8F8B2
:104EB000012000042040002805D0012000042449DE
:104EC0004860FFF717FE012040042040002805D06D
:104ED000012040041E494860FFF784FE0120800441
:104EE0002040002803D00120800419494860012097
:104EF000C0042040002805D00120C00414494860A7
:104F0000FCF778FC012000052040002803D0012098
:104F100000050F494860012040052040002803D0CB
:104F2000012040050A4948600120800520400028F2
:104F300003D001208005064948600120C0052040BB
:104F4000002803D00120C0050149486070BD000061
:104F5000000006400005064010B503E00B78037022
:104F6000491C401C1346521E002BF7D110BD10B532
:104F700003E00B780370491C401C1346521E002BA3
:104F8000F7D110BD10B50C4B18600C4B19600C4BD1
:104F90001A60094B1B681B68DB790A4C23607D2370
:104FA0001B01094C2361084B80331B6901242343F7
:104FB000054C8034236110BDD4000020DC000020AB
:104FC000E0000020CC0000200000064070B505463F
:104FD0000C461B48006884421CD9194800682818F0
:104FE0001849086016480068201A174908601748D1
:104FF000806880210843154988600968144A881828
:105000000F490A682946FFF7B2FF0D4800680F49AB
:10501000486013E000200B4908600B4908600B480A
:10502000806880210843094988600968084A88180F
:1050300022462946FFF79BFF0448446070BD0000EC
:10504000CC000020B0000020B40000200005064085
:1050500000010640054A10600022054B1A60054A0F
:105060001160054A1268054B5A617047B80000206C
:10507000BC000020C0000020CC000020000506403D
:1050800010B5082218491948FFF771FF1748007832
:1050900060210840002804D0202805D0402813D1E2
:1050A0000AE000F047F81CE011480068002802D030
:1050B0000F480068804714E00E480068002802D0BE
:1050C0000C48006880470CE00B48C0680221084388
:1050D0000949C8600846C069022108430649C861F9
:1050E00000BF00BF10BD000000010640A40000206A
:1050F000DC000020D80000200005064030B5034643
:10510000002110E00C010A4D601902681407240FF9
:105110009C4207D10C012D1D601902680224144322
:10512000046002E0491C0829ECDB00BF30BD000030
:105130000805064070B50020C1490860C1490860F3
:10514000C148007880210840002873D0BE484078CC
:10515000002837D006281ED0082802D00A286AD195
:105160001CE0BA480068BA490968BA4A8918087048
:10517000B748806880210843B549886001204860AD
:105180000846806980210843B149886100210846AA
:10519000FFF760FF8FE0FFF757FD8CE0AE48006837
:1051A000AB490968AB4A89180870A9488068802112
:1051B0000843A74988600120486000210846FFF79E
:1051C00049FF78E0A048007880281DD10020A3493D
:1051D00009684968C97940221140002901D001219C
:1051E00008439E4909684968C9792022114000296D
:1051F00004D09B49097849000143C8B29449096821
:10520000944A8918087036E08F480078812806D1C2
:1052100000218F4800688F4A801801702BE08A486F
:105220000078822827D1884800790407240F224675
:1052300000200FE040E031E00501854E0836A91955
:105240000B681D072D0F954203D10501361DA919C5
:1052500002E0401C0828EFDB00BF0D680226354045
:10526000002D01D0012000E0002079490968794A29
:105270008918087000BF002075490968754A8918A7
:105280004870734880688021084371498860022013
:10529000486000210846FFF7DDFE0CE06C48C0685E
:1052A000022108436A49C8600846C06902210843D0
:1052B0006749C86100BFC1E06348407805284AD00B
:1052C00004DC012807D0032870D165E009284FD0FD
:1052D0000B28F9D190E05C48807800282BD15A4AFD
:1052E00012791107090F00BF22E05E4A05231B0255
:1052F000D2180301D21892681207120F8A4216D1EF
:1053000001228240584B1B681A40002A0FD1554A8F
:1053100005231B02D2180301D218D26802239A4334
:10532000504B052424021B1904011B19DA60401C90
:105330000828DADB06E044488078012802D1002002
:105340004749087042488068802108434049886086
:105350000020486071E03C488078444908603C483F
:105360008068802108433A4988600020486064E0F2
:1053700035488078354908603D480068002802D0EB
:105380003B480068804732488068802108433049A4
:1053900088600020486050E02B48807800281CD1AD
:1053A0002948007903071B0F002112E038E00C01A7
:1053B000274D0835601902681407240F9C4207D155
:1053C0000C012D1D6019026802241443046002E0E0
:1053D000491C0829EBDB00BF05E01B488078012849
:1053E00001D11F4908701A48806880210843184974
:1053F00088600020486020E01348807816490860E3
:105400001C480068002802D01A48006880471048ED
:105410008068802108430E498860002048600CE0C5
:105420000B48C068022108430949C8600846C069A2
:10543000022108430649C86100BF00BF70BD0000DB
:10544000B0000020B4000020A4000020C80000200C
:105450000005064000010640D0000020D4000020D6
:10546000AC00002000000640E8000020C40000203E
:10547000E4000020E0000020154816490968414377
:10548000154A5161002191610521116100BF00BFE2
:10549000114909690122120411400029F8D00021A4
:1054A0000D4A116100BF0D480069400840000B49DA
:1054B0000861FF20103009498039486008460068BB
:1054C000FF2110310843054980390860704700000A
:1054D000A08601000400002000E000E080000640FB
:1054E0000021144A1160144A1160144A1160144AD0
:1054F0001160144A1160144A1160144900220A60B4
:105500004A60002010E012490522120289180201A7
:1055100089188968802291430D4A05231B02D218FD
:105520000301D2189160401C0828ECDB0021084AD6
:1055300091607047B0000020B4000020B800002047
:10554000BC000020C0000020E8000020A4000020D3
:105550000000064010B58AB0324841780078814298
:105560005DD03048407880012F49441801A9204679
:1055700000F066F901283FD1242201A92B48FAF74F
:1055800007FE2B48006A2B49441840222A4920462E
:10559000FFF7E2FC402026494862FDF7BFFF27489D
:1055A000807B002805D00322002125A0FEF7A4F867
:1055B00007E0032000231022802100902548FEF7F9
:1055C00071F8FEF7BDF819480938827E174958204E
:1055D00000F0BCF9642000F0F2FE14482030C278DC
:1055E00001460E39592000F0B1F97D20000100F08C
:1055F000E6FEFEF795FF0BE00D48006A0D494418E2
:10560000402215492046FFF7A7FC40200849486280
:1056100004484078401C4107490F024841700AB0D5
:1056200010BD0000C6030020C6010020710100204B
:10563000000506400001064000670000440100200C
:1056400020205353494420536574204F4B21202080
:1056500000000000A4A100004067000030B5C5B004
:10566000644A536891681068D268429344924391A7
:105670004190604B10330FCB3DAC0FC43C2102A8CE
:10568000FAF79FFD5B4820300068019006225A49D6
:1056900043A80230FAF77CFD06225749891DA01F56
:1056A000FAF776FD0A23042211A93DA8FEF7D4FBE0
:1056B0000A2211A941A8FAF775FE002409E041A8C1
:1056C000015D4D480C30005D814200D003E0601C5C
:1056D000C4B2102CF3DB00BF102C75D046480F303D
:1056E000807B002805D00322002144A0FEF704F8A7
:1056F00007E0032000231022802100904448FDF79A
:10570000D1FFFEF71DF872E04248417800788142EF
:1057100064D04048407880013F4945182878AA283D
:1057200055D16878EE2852D1E878002802D00128B7
:105730004BD116E00D21684681710221C1710C2206
:105740002D4902A8FAF724FD3448006A3449451867
:10575000402201A92846FFF7FFFB40202F4948625D
:1057600034E01022291D24480C30FAF711FD0024E2
:1057700009E041A8015D20480C30005D814200D065
:1057800003E0601CC4B2102CF3DB00BF102C1AD154
:1057900019480F30807B002805D00322002121A06A
:1057A000FDF7AAFF07E003200023102280210090CC
:1057B0002148FDF777FFFDF7C3FF7D20000100F0D2
:1057C000FEFDFEF7ADFE01E012E000BF00BF114894
:1057D0004078401C4107490F0E4841701748008827
:1057E000002804D100F096F80A20144908808BE7BD
:1057F00045B030BD806700003501002020506C6549
:1058000061736520437261636B21202000000000FA
:10581000A4A20000C6030020C60100200005064027
:105820000001064020437261636B2053756365730A
:105830007321202000000000A4A3000060000020CD
:1058400070B504460D462178641CAA2901D00020B9
:1058500070BD2178641CEE2901D00020F8E7207883
:105860006874641C687C002800D1F1E76A7C2146DA
:105870002846FAF78DFC687C04192178641CAA2953
:1058800001D00020E4E72178641CEE2901D000203B
:10589000DEE7217823204155641C405D002800D1BB
:1058A000D6E72320425D214628461230FAF770FCE5
:1058B0000120CDE7024840890149888170470000F6
:1058C000AA0100200149C862704700000042005050
:1058D000002808D108490968032212059143891854
:1058E000054A116007E00449096803221205914343
:1058F0008918014A11607047004000500148806AD1
:10590000C0B27047004200500149886270470000F1
:105910000042005010B500F06BFD0A4800780328E3
:105920000ED00848807801280AD1064880880649A8
:10593000884205D103480078002801D1FEF7F0FD28
:1059400010BD000072000020B80B00007CB50646B8
:105950000C4615465A2168460171A5214171681C03
:10596000C1B268468171C671FC210091042101A871
:1059700000F0A8F9002C06D0012000F020FD2946F7
:10598000204600F09FF90121684600F09BF97CBD9C
:10599000F0B589B000249148C07C9049897C884248
:1059A0007CD08E48C07C332148438D490F5C8B48A6
:1059B000C07C332148438A494018451C8748C07C35
:1059C00033214843864940182030807C401EC6B2AF
:1059D000052F74D008DC012F0DD0022F23D0032F08
:1059E00028D0042F6CD1AAE0062F6AD0072F69D0E7
:1059F000AC2FF7D1D6E00120FCF744F9012079491A
:105A00004870042008707848C07B032803DA02211C
:105A10007548C17302E006217348C17300207249C2
:105A200020398886CCE0032229466F481738FAF7D8
:105A3000AFFBC5E06B48047801E0601CC4B2287875
:105A400061006A4A89184978884201DC042CF4DB39
:105A500001E0601EC4B228786100644A515C88424B
:105A600001DD002CF5DC5F480078A04266D05D487F
:105A700004700078002826D1FCF724F90020FBF7F9
:105A8000BBFD0223002230218020FDF753FD564844
:105A9000807B002807D00422002100E09BE054A076
:105AA000FDF72AFE07E00420002310228021009049
:105AB0005448FDF7F7FD0020FCF7E4F81FE047E04D
:105AC0007DE04FE067E0012C01DC012000E00020D8
:105AD000044644488078A04211D04248847042482D
